{
	"contracts/user.sol": {
		"MarksManagmtSys": {
			"abi": [
				{
					"inputs": [],
					"stateMutability": "nonpayable",
					"type": "constructor"
				},
				{
					"inputs": [
						{
							"internalType": "int256",
							"name": "_ID",
							"type": "int256"
						},
						{
							"internalType": "string",
							"name": "_fName",
							"type": "string"
						},
						{
							"internalType": "string",
							"name": "_lName",
							"type": "string"
						},
						{
							"internalType": "int256",
							"name": "_marks",
							"type": "int256"
						}
					],
					"name": "addNewRecords",
					"outputs": [],
					"stateMutability": "nonpayable",
					"type": "function"
				},
				{
					"inputs": [
						{
							"internalType": "int256",
							"name": "_bonus",
							"type": "int256"
						}
					],
					"name": "bonusMarks",
					"outputs": [],
					"stateMutability": "nonpayable",
					"type": "function"
				},
				{
					"inputs": [],
					"name": "stdCount",
					"outputs": [
						{
							"internalType": "int256",
							"name": "",
							"type": "int256"
						}
					],
					"stateMutability": "view",
					"type": "function"
				},
				{
					"inputs": [
						{
							"internalType": "int256",
							"name": "",
							"type": "int256"
						}
					],
					"name": "stdRecords",
					"outputs": [
						{
							"internalType": "int256",
							"name": "ID",
							"type": "int256"
						},
						{
							"internalType": "string",
							"name": "fName",
							"type": "string"
						},
						{
							"internalType": "string",
							"name": "lName",
							"type": "string"
						},
						{
							"internalType": "int256",
							"name": "marks",
							"type": "int256"
						}
					],
					"stateMutability": "view",
					"type": "function"
				}
			],
			"devdoc": {
				"kind": "dev",
				"methods": {},
				"version": 1
			},
			"evm": {
				"assembly": "    /* \"contracts/user.sol\":112:1089  contract MarksManagmtSys ... */\n  mstore(0x40, 0x80)\n    /* \"contracts/user.sol\":328:329  0 */\n  0x00\n    /* \"contracts/user.sol\":306:329  int public stdCount = 0 */\n  0x01\n  sstore\n    /* \"contracts/user.sol\":455:500  constructor() ... */\n  callvalue\n  dup1\n  iszero\n  tag_1\n  jumpi\n  0x00\n  dup1\n  revert\ntag_1:\n  pop\n    /* \"contracts/user.sol\":484:494  msg.sender */\n  caller\n    /* \"contracts/user.sol\":478:483  owner */\n  0x00\n  dup1\n    /* \"contracts/user.sol\":478:494  owner=msg.sender */\n  0x0100\n  exp\n  dup2\n  sload\n  dup2\n  0xffffffffffffffffffffffffffffffffffffffff\n  mul\n  not\n  and\n  swap1\n  dup4\n  0xffffffffffffffffffffffffffffffffffffffff\n  and\n  mul\n  or\n  swap1\n  sstore\n  pop\n    /* \"contracts/user.sol\":112:1089  contract MarksManagmtSys ... */\n  dataSize(sub_0)\n  dup1\n  dataOffset(sub_0)\n  0x00\n  codecopy\n  0x00\n  return\nstop\n\nsub_0: assembly {\n        /* \"contracts/user.sol\":112:1089  contract MarksManagmtSys ... */\n      mstore(0x40, 0x80)\n      callvalue\n      dup1\n      iszero\n      tag_1\n      jumpi\n      0x00\n      dup1\n      revert\n    tag_1:\n      pop\n      jumpi(tag_2, lt(calldatasize, 0x04))\n      shr(0xe0, calldataload(0x00))\n      dup1\n      0x9e676bcf\n      eq\n      tag_3\n      jumpi\n      dup1\n      0xbc542e72\n      eq\n      tag_4\n      jumpi\n      dup1\n      0xcd9f8398\n      eq\n      tag_5\n      jumpi\n      dup1\n      0xfe615f2a\n      eq\n      tag_6\n      jumpi\n    tag_2:\n      0x00\n      dup1\n      revert\n        /* \"contracts/user.sol\":559:901  function addNewRecords(int _ID, ... */\n    tag_3:\n      tag_7\n      0x04\n      dup1\n      calldatasize\n      sub\n      dup2\n      add\n      swap1\n      tag_8\n      swap2\n      swap1\n      tag_9\n      jump\t// in\n    tag_8:\n      tag_10\n      jump\t// in\n    tag_7:\n      stop\n        /* \"contracts/user.sol\":950:1085  function bonusMarks(int _bonus) public onlyOwner ... */\n    tag_4:\n      tag_11\n      0x04\n      dup1\n      calldatasize\n      sub\n      dup2\n      add\n      swap1\n      tag_12\n      swap2\n      swap1\n      tag_13\n      jump\t// in\n    tag_12:\n      tag_14\n      jump\t// in\n    tag_11:\n      stop\n        /* \"contracts/user.sol\":334:375  mapping(int => Student) public stdRecords */\n    tag_5:\n      tag_15\n      0x04\n      dup1\n      calldatasize\n      sub\n      dup2\n      add\n      swap1\n      tag_16\n      swap2\n      swap1\n      tag_13\n      jump\t// in\n    tag_16:\n      tag_17\n      jump\t// in\n    tag_15:\n      mload(0x40)\n      tag_18\n      swap5\n      swap4\n      swap3\n      swap2\n      swap1\n      tag_19\n      jump\t// in\n    tag_18:\n      mload(0x40)\n      dup1\n      swap2\n      sub\n      swap1\n      return\n        /* \"contracts/user.sol\":306:329  int public stdCount = 0 */\n    tag_6:\n      tag_20\n      tag_21\n      jump\t// in\n    tag_20:\n      mload(0x40)\n      tag_22\n      swap2\n      swap1\n      tag_23\n      jump\t// in\n    tag_22:\n      mload(0x40)\n      dup1\n      swap2\n      sub\n      swap1\n      return\n        /* \"contracts/user.sol\":559:901  function addNewRecords(int _ID, ... */\n    tag_10:\n        /* \"contracts/user.sol\":427:437  msg.sender */\n      caller\n        /* \"contracts/user.sol\":418:437  owner == msg.sender */\n      0xffffffffffffffffffffffffffffffffffffffff\n      and\n        /* \"contracts/user.sol\":418:423  owner */\n      0x00\n      dup1\n      sload\n      swap1\n      0x0100\n      exp\n      swap1\n      div\n      0xffffffffffffffffffffffffffffffffffffffff\n      and\n        /* \"contracts/user.sol\":418:437  owner == msg.sender */\n      0xffffffffffffffffffffffffffffffffffffffff\n      and\n      eq\n        /* \"contracts/user.sol\":410:438  require(owner == msg.sender) */\n      tag_25\n      jumpi\n      0x00\n      dup1\n      revert\n    tag_25:\n        /* \"contracts/user.sol\":750:751  1 */\n      0x01\n        /* \"contracts/user.sol\":739:747  stdCount */\n      dup1\n      sload\n        /* \"contracts/user.sol\":739:751  stdCount + 1 */\n      tag_27\n      swap2\n      swap1\n      tag_28\n      jump\t// in\n    tag_27:\n        /* \"contracts/user.sol\":728:736  stdCount */\n      0x01\n        /* \"contracts/user.sol\":728:751  stdCount = stdCount + 1 */\n      dup2\n      swap1\n      sstore\n      pop\n        /* \"contracts/user.sol\":848:895  Student(_ID, _fName, ... */\n      mload(0x40)\n      dup1\n      0x80\n      add\n      0x40\n      mstore\n      dup1\n        /* \"contracts/user.sol\":856:859  _ID */\n      dup6\n        /* \"contracts/user.sol\":848:895  Student(_ID, _fName, ... */\n      dup2\n      mstore\n      0x20\n      add\n        /* \"contracts/user.sol\":861:867  _fName */\n      dup5\n        /* \"contracts/user.sol\":848:895  Student(_ID, _fName, ... */\n      dup2\n      mstore\n      0x20\n      add\n        /* \"contracts/user.sol\":880:886  _lName */\n      dup4\n        /* \"contracts/user.sol\":848:895  Student(_ID, _fName, ... */\n      dup2\n      mstore\n      0x20\n      add\n        /* \"contracts/user.sol\":888:894  _marks */\n      dup3\n        /* \"contracts/user.sol\":848:895  Student(_ID, _fName, ... */\n      dup2\n      mstore\n      pop\n        /* \"contracts/user.sol\":825:835  stdRecords */\n      0x02\n        /* \"contracts/user.sol\":825:845  stdRecords[stdCount] */\n      0x00\n        /* \"contracts/user.sol\":836:844  stdCount */\n      sload(0x01)\n        /* \"contracts/user.sol\":825:845  stdRecords[stdCount] */\n      dup2\n      mstore\n      0x20\n      add\n      swap1\n      dup2\n      mstore\n      0x20\n      add\n      0x00\n      keccak256\n        /* \"contracts/user.sol\":825:895  stdRecords[stdCount] = Student(_ID, _fName, ... */\n      0x00\n      dup3\n      add\n      mload\n      dup2\n      0x00\n      add\n      sstore\n      0x20\n      dup3\n      add\n      mload\n      dup2\n      0x01\n      add\n      swap1\n      dup2\n      tag_29\n      swap2\n      swap1\n      tag_30\n      jump\t// in\n    tag_29:\n      pop\n      0x40\n      dup3\n      add\n      mload\n      dup2\n      0x02\n      add\n      swap1\n      dup2\n      tag_31\n      swap2\n      swap1\n      tag_30\n      jump\t// in\n    tag_31:\n      pop\n      0x60\n      dup3\n      add\n      mload\n      dup2\n      0x03\n      add\n      sstore\n      swap1\n      pop\n      pop\n        /* \"contracts/user.sol\":559:901  function addNewRecords(int _ID, ... */\n      pop\n      pop\n      pop\n      pop\n      jump\t// out\n        /* \"contracts/user.sol\":950:1085  function bonusMarks(int _bonus) public onlyOwner ... */\n    tag_14:\n        /* \"contracts/user.sol\":427:437  msg.sender */\n      caller\n        /* \"contracts/user.sol\":418:437  owner == msg.sender */\n      0xffffffffffffffffffffffffffffffffffffffff\n      and\n        /* \"contracts/user.sol\":418:423  owner */\n      0x00\n      dup1\n      sload\n      swap1\n      0x0100\n      exp\n      swap1\n      div\n      0xffffffffffffffffffffffffffffffffffffffff\n      and\n        /* \"contracts/user.sol\":418:437  owner == msg.sender */\n      0xffffffffffffffffffffffffffffffffffffffff\n      and\n      eq\n        /* \"contracts/user.sol\":410:438  require(owner == msg.sender) */\n      tag_33\n      jumpi\n      0x00\n      dup1\n      revert\n    tag_33:\n        /* \"contracts/user.sol\":1073:1079  _bonus */\n      dup1\n        /* \"contracts/user.sol\":1044:1054  stdRecords */\n      0x02\n        /* \"contracts/user.sol\":1044:1064  stdRecords[stdCount] */\n      0x00\n        /* \"contracts/user.sol\":1055:1063  stdCount */\n      sload(0x01)\n        /* \"contracts/user.sol\":1044:1064  stdRecords[stdCount] */\n      dup2\n      mstore\n      0x20\n      add\n      swap1\n      dup2\n      mstore\n      0x20\n      add\n      0x00\n      keccak256\n        /* \"contracts/user.sol\":1044:1070  stdRecords[stdCount].marks */\n      0x03\n      add\n      sload\n        /* \"contracts/user.sol\":1044:1079  stdRecords[stdCount].marks + _bonus */\n      tag_35\n      swap2\n      swap1\n      tag_28\n      jump\t// in\n    tag_35:\n        /* \"contracts/user.sol\":1008:1018  stdRecords */\n      0x02\n        /* \"contracts/user.sol\":1008:1028  stdRecords[stdCount] */\n      0x00\n        /* \"contracts/user.sol\":1019:1027  stdCount */\n      sload(0x01)\n        /* \"contracts/user.sol\":1008:1028  stdRecords[stdCount] */\n      dup2\n      mstore\n      0x20\n      add\n      swap1\n      dup2\n      mstore\n      0x20\n      add\n      0x00\n      keccak256\n        /* \"contracts/user.sol\":1008:1034  stdRecords[stdCount].marks */\n      0x03\n      add\n        /* \"contracts/user.sol\":1008:1079  stdRecords[stdCount].marks = ... */\n      dup2\n      swap1\n      sstore\n      pop\n        /* \"contracts/user.sol\":950:1085  function bonusMarks(int _bonus) public onlyOwner ... */\n      pop\n      jump\t// out\n        /* \"contracts/user.sol\":334:375  mapping(int => Student) public stdRecords */\n    tag_17:\n      mstore(0x20, 0x02)\n      dup1\n      0x00\n      mstore\n      keccak256(0x00, 0x40)\n      0x00\n      swap2\n      pop\n      swap1\n      pop\n      dup1\n      0x00\n      add\n      sload\n      swap1\n      dup1\n      0x01\n      add\n      dup1\n      sload\n      tag_36\n      swap1\n      tag_37\n      jump\t// in\n    tag_36:\n      dup1\n      0x1f\n      add\n      0x20\n      dup1\n      swap2\n      div\n      mul\n      0x20\n      add\n      mload(0x40)\n      swap1\n      dup2\n      add\n      0x40\n      mstore\n      dup1\n      swap3\n      swap2\n      swap1\n      dup2\n      dup2\n      mstore\n      0x20\n      add\n      dup3\n      dup1\n      sload\n      tag_38\n      swap1\n      tag_37\n      jump\t// in\n    tag_38:\n      dup1\n      iszero\n      tag_39\n      jumpi\n      dup1\n      0x1f\n      lt\n      tag_40\n      jumpi\n      0x0100\n      dup1\n      dup4\n      sload\n      div\n      mul\n      dup4\n      mstore\n      swap2\n      0x20\n      add\n      swap2\n      jump(tag_39)\n    tag_40:\n      dup3\n      add\n      swap2\n      swap1\n      0x00\n      mstore\n      keccak256(0x00, 0x20)\n      swap1\n    tag_41:\n      dup2\n      sload\n      dup2\n      mstore\n      swap1\n      0x01\n      add\n      swap1\n      0x20\n      add\n      dup1\n      dup4\n      gt\n      tag_41\n      jumpi\n      dup3\n      swap1\n      sub\n      0x1f\n      and\n      dup3\n      add\n      swap2\n    tag_39:\n      pop\n      pop\n      pop\n      pop\n      pop\n      swap1\n      dup1\n      0x02\n      add\n      dup1\n      sload\n      tag_42\n      swap1\n      tag_37\n      jump\t// in\n    tag_42:\n      dup1\n      0x1f\n      add\n      0x20\n      dup1\n      swap2\n      div\n      mul\n      0x20\n      add\n      mload(0x40)\n      swap1\n      dup2\n      add\n      0x40\n      mstore\n      dup1\n      swap3\n      swap2\n      swap1\n      dup2\n      dup2\n      mstore\n      0x20\n      add\n      dup3\n      dup1\n      sload\n      tag_43\n      swap1\n      tag_37\n      jump\t// in\n    tag_43:\n      dup1\n      iszero\n      tag_44\n      jumpi\n      dup1\n      0x1f\n      lt\n      tag_45\n      jumpi\n      0x0100\n      dup1\n      dup4\n      sload\n      div\n      mul\n      dup4\n      mstore\n      swap2\n      0x20\n      add\n      swap2\n      jump(tag_44)\n    tag_45:\n      dup3\n      add\n      swap2\n      swap1\n      0x00\n      mstore\n      keccak256(0x00, 0x20)\n      swap1\n    tag_46:\n      dup2\n      sload\n      dup2\n      mstore\n      swap1\n      0x01\n      add\n      swap1\n      0x20\n      add\n      dup1\n      dup4\n      gt\n      tag_46\n      jumpi\n      dup3\n      swap1\n      sub\n      0x1f\n      and\n      dup3\n      add\n      swap2\n    tag_44:\n      pop\n      pop\n      pop\n      pop\n      pop\n      swap1\n      dup1\n      0x03\n      add\n      sload\n      swap1\n      pop\n      dup5\n      jump\t// out\n        /* \"contracts/user.sol\":306:329  int public stdCount = 0 */\n    tag_21:\n      sload(0x01)\n      dup2\n      jump\t// out\n        /* \"#utility.yul\":7:82   */\n    tag_47:\n        /* \"#utility.yul\":40:46   */\n      0x00\n        /* \"#utility.yul\":73:75   */\n      0x40\n        /* \"#utility.yul\":67:76   */\n      mload\n        /* \"#utility.yul\":57:76   */\n      swap1\n      pop\n        /* \"#utility.yul\":7:82   */\n      swap1\n      jump\t// out\n        /* \"#utility.yul\":88:205   */\n    tag_48:\n        /* \"#utility.yul\":197:198   */\n      0x00\n        /* \"#utility.yul\":194:195   */\n      dup1\n        /* \"#utility.yul\":187:199   */\n      revert\n        /* \"#utility.yul\":211:328   */\n    tag_49:\n        /* \"#utility.yul\":320:321   */\n      0x00\n        /* \"#utility.yul\":317:318   */\n      dup1\n        /* \"#utility.yul\":310:322   */\n      revert\n        /* \"#utility.yul\":334:410   */\n    tag_50:\n        /* \"#utility.yul\":370:377   */\n      0x00\n        /* \"#utility.yul\":399:404   */\n      dup2\n        /* \"#utility.yul\":388:404   */\n      swap1\n      pop\n        /* \"#utility.yul\":334:410   */\n      swap2\n      swap1\n      pop\n      jump\t// out\n        /* \"#utility.yul\":416:536   */\n    tag_51:\n        /* \"#utility.yul\":488:511   */\n      tag_92\n        /* \"#utility.yul\":505:510   */\n      dup2\n        /* \"#utility.yul\":488:511   */\n      tag_50\n      jump\t// in\n    tag_92:\n        /* \"#utility.yul\":481:486   */\n      dup2\n        /* \"#utility.yul\":478:512   */\n      eq\n        /* \"#utility.yul\":468:530   */\n      tag_93\n      jumpi\n        /* \"#utility.yul\":526:527   */\n      0x00\n        /* \"#utility.yul\":523:524   */\n      dup1\n        /* \"#utility.yul\":516:528   */\n      revert\n        /* \"#utility.yul\":468:530   */\n    tag_93:\n        /* \"#utility.yul\":416:536   */\n      pop\n      jump\t// out\n        /* \"#utility.yul\":542:679   */\n    tag_52:\n        /* \"#utility.yul\":587:592   */\n      0x00\n        /* \"#utility.yul\":625:631   */\n      dup2\n        /* \"#utility.yul\":612:632   */\n      calldataload\n        /* \"#utility.yul\":603:632   */\n      swap1\n      pop\n        /* \"#utility.yul\":641:673   */\n      tag_95\n        /* \"#utility.yul\":667:672   */\n      dup2\n        /* \"#utility.yul\":641:673   */\n      tag_51\n      jump\t// in\n    tag_95:\n        /* \"#utility.yul\":542:679   */\n      swap3\n      swap2\n      pop\n      pop\n      jump\t// out\n        /* \"#utility.yul\":685:802   */\n    tag_53:\n        /* \"#utility.yul\":794:795   */\n      0x00\n        /* \"#utility.yul\":791:792   */\n      dup1\n        /* \"#utility.yul\":784:796   */\n      revert\n        /* \"#utility.yul\":808:925   */\n    tag_54:\n        /* \"#utility.yul\":917:918   */\n      0x00\n        /* \"#utility.yul\":914:915   */\n      dup1\n        /* \"#utility.yul\":907:919   */\n      revert\n        /* \"#utility.yul\":931:1033   */\n    tag_55:\n        /* \"#utility.yul\":972:978   */\n      0x00\n        /* \"#utility.yul\":1023:1025   */\n      0x1f\n        /* \"#utility.yul\":1019:1026   */\n      not\n        /* \"#utility.yul\":1014:1016   */\n      0x1f\n        /* \"#utility.yul\":1007:1012   */\n      dup4\n        /* \"#utility.yul\":1003:1017   */\n      add\n        /* \"#utility.yul\":999:1027   */\n      and\n        /* \"#utility.yul\":989:1027   */\n      swap1\n      pop\n        /* \"#utility.yul\":931:1033   */\n      swap2\n      swap1\n      pop\n      jump\t// out\n        /* \"#utility.yul\":1039:1219   */\n    tag_56:\n        /* \"#utility.yul\":1087:1164   */\n      0x4e487b7100000000000000000000000000000000000000000000000000000000\n        /* \"#utility.yul\":1084:1085   */\n      0x00\n        /* \"#utility.yul\":1077:1165   */\n      mstore\n        /* \"#utility.yul\":1184:1188   */\n      0x41\n        /* \"#utility.yul\":1181:1182   */\n      0x04\n        /* \"#utility.yul\":1174:1189   */\n      mstore\n        /* \"#utility.yul\":1208:1212   */\n      0x24\n        /* \"#utility.yul\":1205:1206   */\n      0x00\n        /* \"#utility.yul\":1198:1213   */\n      revert\n        /* \"#utility.yul\":1225:1506   */\n    tag_57:\n        /* \"#utility.yul\":1308:1335   */\n      tag_101\n        /* \"#utility.yul\":1330:1334   */\n      dup3\n        /* \"#utility.yul\":1308:1335   */\n      tag_55\n      jump\t// in\n    tag_101:\n        /* \"#utility.yul\":1300:1306   */\n      dup2\n        /* \"#utility.yul\":1296:1336   */\n      add\n        /* \"#utility.yul\":1438:1444   */\n      dup2\n        /* \"#utility.yul\":1426:1436   */\n      dup2\n        /* \"#utility.yul\":1423:1445   */\n      lt\n        /* \"#utility.yul\":1402:1420   */\n      0xffffffffffffffff\n        /* \"#utility.yul\":1390:1400   */\n      dup3\n        /* \"#utility.yul\":1387:1421   */\n      gt\n        /* \"#utility.yul\":1384:1446   */\n      or\n        /* \"#utility.yul\":1381:1469   */\n      iszero\n      tag_102\n      jumpi\n        /* \"#utility.yul\":1449:1467   */\n      tag_103\n      tag_56\n      jump\t// in\n    tag_103:\n        /* \"#utility.yul\":1381:1469   */\n    tag_102:\n        /* \"#utility.yul\":1489:1499   */\n      dup1\n        /* \"#utility.yul\":1485:1487   */\n      0x40\n        /* \"#utility.yul\":1478:1500   */\n      mstore\n        /* \"#utility.yul\":1268:1506   */\n      pop\n        /* \"#utility.yul\":1225:1506   */\n      pop\n      pop\n      jump\t// out\n        /* \"#utility.yul\":1512:1641   */\n    tag_58:\n        /* \"#utility.yul\":1546:1552   */\n      0x00\n        /* \"#utility.yul\":1573:1593   */\n      tag_105\n      tag_47\n      jump\t// in\n    tag_105:\n        /* \"#utility.yul\":1563:1593   */\n      swap1\n      pop\n        /* \"#utility.yul\":1602:1635   */\n      tag_106\n        /* \"#utility.yul\":1630:1634   */\n      dup3\n        /* \"#utility.yul\":1622:1628   */\n      dup3\n        /* \"#utility.yul\":1602:1635   */\n      tag_57\n      jump\t// in\n    tag_106:\n        /* \"#utility.yul\":1512:1641   */\n      swap2\n      swap1\n      pop\n      jump\t// out\n        /* \"#utility.yul\":1647:1955   */\n    tag_59:\n        /* \"#utility.yul\":1709:1713   */\n      0x00\n        /* \"#utility.yul\":1799:1817   */\n      0xffffffffffffffff\n        /* \"#utility.yul\":1791:1797   */\n      dup3\n        /* \"#utility.yul\":1788:1818   */\n      gt\n        /* \"#utility.yul\":1785:1841   */\n      iszero\n      tag_108\n      jumpi\n        /* \"#utility.yul\":1821:1839   */\n      tag_109\n      tag_56\n      jump\t// in\n    tag_109:\n        /* \"#utility.yul\":1785:1841   */\n    tag_108:\n        /* \"#utility.yul\":1859:1888   */\n      tag_110\n        /* \"#utility.yul\":1881:1887   */\n      dup3\n        /* \"#utility.yul\":1859:1888   */\n      tag_55\n      jump\t// in\n    tag_110:\n        /* \"#utility.yul\":1851:1888   */\n      swap1\n      pop\n        /* \"#utility.yul\":1943:1947   */\n      0x20\n        /* \"#utility.yul\":1937:1941   */\n      dup2\n        /* \"#utility.yul\":1933:1948   */\n      add\n        /* \"#utility.yul\":1925:1948   */\n      swap1\n      pop\n        /* \"#utility.yul\":1647:1955   */\n      swap2\n      swap1\n      pop\n      jump\t// out\n        /* \"#utility.yul\":1961:2107   */\n    tag_60:\n        /* \"#utility.yul\":2058:2064   */\n      dup3\n        /* \"#utility.yul\":2053:2056   */\n      dup2\n        /* \"#utility.yul\":2048:2051   */\n      dup4\n        /* \"#utility.yul\":2035:2065   */\n      calldatacopy\n        /* \"#utility.yul\":2099:2100   */\n      0x00\n        /* \"#utility.yul\":2090:2096   */\n      dup4\n        /* \"#utility.yul\":2085:2088   */\n      dup4\n        /* \"#utility.yul\":2081:2097   */\n      add\n        /* \"#utility.yul\":2074:2101   */\n      mstore\n        /* \"#utility.yul\":1961:2107   */\n      pop\n      pop\n      pop\n      jump\t// out\n        /* \"#utility.yul\":2113:2538   */\n    tag_61:\n        /* \"#utility.yul\":2191:2196   */\n      0x00\n        /* \"#utility.yul\":2216:2282   */\n      tag_113\n        /* \"#utility.yul\":2232:2281   */\n      tag_114\n        /* \"#utility.yul\":2274:2280   */\n      dup5\n        /* \"#utility.yul\":2232:2281   */\n      tag_59\n      jump\t// in\n    tag_114:\n        /* \"#utility.yul\":2216:2282   */\n      tag_58\n      jump\t// in\n    tag_113:\n        /* \"#utility.yul\":2207:2282   */\n      swap1\n      pop\n        /* \"#utility.yul\":2305:2311   */\n      dup3\n        /* \"#utility.yul\":2298:2303   */\n      dup2\n        /* \"#utility.yul\":2291:2312   */\n      mstore\n        /* \"#utility.yul\":2343:2347   */\n      0x20\n        /* \"#utility.yul\":2336:2341   */\n      dup2\n        /* \"#utility.yul\":2332:2348   */\n      add\n        /* \"#utility.yul\":2381:2384   */\n      dup5\n        /* \"#utility.yul\":2372:2378   */\n      dup5\n        /* \"#utility.yul\":2367:2370   */\n      dup5\n        /* \"#utility.yul\":2363:2379   */\n      add\n        /* \"#utility.yul\":2360:2385   */\n      gt\n        /* \"#utility.yul\":2357:2469   */\n      iszero\n      tag_115\n      jumpi\n        /* \"#utility.yul\":2388:2467   */\n      tag_116\n      tag_54\n      jump\t// in\n    tag_116:\n        /* \"#utility.yul\":2357:2469   */\n    tag_115:\n        /* \"#utility.yul\":2478:2532   */\n      tag_117\n        /* \"#utility.yul\":2525:2531   */\n      dup5\n        /* \"#utility.yul\":2520:2523   */\n      dup3\n        /* \"#utility.yul\":2515:2518   */\n      dup6\n        /* \"#utility.yul\":2478:2532   */\n      tag_60\n      jump\t// in\n    tag_117:\n        /* \"#utility.yul\":2197:2538   */\n      pop\n        /* \"#utility.yul\":2113:2538   */\n      swap4\n      swap3\n      pop\n      pop\n      pop\n      jump\t// out\n        /* \"#utility.yul\":2558:2898   */\n    tag_62:\n        /* \"#utility.yul\":2614:2619   */\n      0x00\n        /* \"#utility.yul\":2663:2666   */\n      dup3\n        /* \"#utility.yul\":2656:2660   */\n      0x1f\n        /* \"#utility.yul\":2648:2654   */\n      dup4\n        /* \"#utility.yul\":2644:2661   */\n      add\n        /* \"#utility.yul\":2640:2667   */\n      slt\n        /* \"#utility.yul\":2630:2752   */\n      tag_119\n      jumpi\n        /* \"#utility.yul\":2671:2750   */\n      tag_120\n      tag_53\n      jump\t// in\n    tag_120:\n        /* \"#utility.yul\":2630:2752   */\n    tag_119:\n        /* \"#utility.yul\":2788:2794   */\n      dup2\n        /* \"#utility.yul\":2775:2795   */\n      calldataload\n        /* \"#utility.yul\":2813:2892   */\n      tag_121\n        /* \"#utility.yul\":2888:2891   */\n      dup5\n        /* \"#utility.yul\":2880:2886   */\n      dup3\n        /* \"#utility.yul\":2873:2877   */\n      0x20\n        /* \"#utility.yul\":2865:2871   */\n      dup7\n        /* \"#utility.yul\":2861:2878   */\n      add\n        /* \"#utility.yul\":2813:2892   */\n      tag_61\n      jump\t// in\n    tag_121:\n        /* \"#utility.yul\":2804:2892   */\n      swap2\n      pop\n        /* \"#utility.yul\":2620:2898   */\n      pop\n        /* \"#utility.yul\":2558:2898   */\n      swap3\n      swap2\n      pop\n      pop\n      jump\t// out\n        /* \"#utility.yul\":2904:4025   */\n    tag_9:\n        /* \"#utility.yul\":3008:3014   */\n      0x00\n        /* \"#utility.yul\":3016:3022   */\n      dup1\n        /* \"#utility.yul\":3024:3030   */\n      0x00\n        /* \"#utility.yul\":3032:3038   */\n      dup1\n        /* \"#utility.yul\":3081:3084   */\n      0x80\n        /* \"#utility.yul\":3069:3078   */\n      dup6\n        /* \"#utility.yul\":3060:3067   */\n      dup8\n        /* \"#utility.yul\":3056:3079   */\n      sub\n        /* \"#utility.yul\":3052:3085   */\n      slt\n        /* \"#utility.yul\":3049:3169   */\n      iszero\n      tag_123\n      jumpi\n        /* \"#utility.yul\":3088:3167   */\n      tag_124\n      tag_48\n      jump\t// in\n    tag_124:\n        /* \"#utility.yul\":3049:3169   */\n    tag_123:\n        /* \"#utility.yul\":3208:3209   */\n      0x00\n        /* \"#utility.yul\":3233:3285   */\n      tag_125\n        /* \"#utility.yul\":3277:3284   */\n      dup8\n        /* \"#utility.yul\":3268:3274   */\n      dup3\n        /* \"#utility.yul\":3257:3266   */\n      dup9\n        /* \"#utility.yul\":3253:3275   */\n      add\n        /* \"#utility.yul\":3233:3285   */\n      tag_52\n      jump\t// in\n    tag_125:\n        /* \"#utility.yul\":3223:3285   */\n      swap5\n      pop\n        /* \"#utility.yul\":3179:3295   */\n      pop\n        /* \"#utility.yul\":3362:3364   */\n      0x20\n        /* \"#utility.yul\":3351:3360   */\n      dup6\n        /* \"#utility.yul\":3347:3365   */\n      add\n        /* \"#utility.yul\":3334:3366   */\n      calldataload\n        /* \"#utility.yul\":3393:3411   */\n      0xffffffffffffffff\n        /* \"#utility.yul\":3385:3391   */\n      dup2\n        /* \"#utility.yul\":3382:3412   */\n      gt\n        /* \"#utility.yul\":3379:3496   */\n      iszero\n      tag_126\n      jumpi\n        /* \"#utility.yul\":3415:3494   */\n      tag_127\n      tag_49\n      jump\t// in\n    tag_127:\n        /* \"#utility.yul\":3379:3496   */\n    tag_126:\n        /* \"#utility.yul\":3520:3583   */\n      tag_128\n        /* \"#utility.yul\":3575:3582   */\n      dup8\n        /* \"#utility.yul\":3566:3572   */\n      dup3\n        /* \"#utility.yul\":3555:3564   */\n      dup9\n        /* \"#utility.yul\":3551:3573   */\n      add\n        /* \"#utility.yul\":3520:3583   */\n      tag_62\n      jump\t// in\n    tag_128:\n        /* \"#utility.yul\":3510:3583   */\n      swap4\n      pop\n        /* \"#utility.yul\":3305:3593   */\n      pop\n        /* \"#utility.yul\":3660:3662   */\n      0x40\n        /* \"#utility.yul\":3649:3658   */\n      dup6\n        /* \"#utility.yul\":3645:3663   */\n      add\n        /* \"#utility.yul\":3632:3664   */\n      calldataload\n        /* \"#utility.yul\":3691:3709   */\n      0xffffffffffffffff\n        /* \"#utility.yul\":3683:3689   */\n      dup2\n        /* \"#utility.yul\":3680:3710   */\n      gt\n        /* \"#utility.yul\":3677:3794   */\n      iszero\n      tag_129\n      jumpi\n        /* \"#utility.yul\":3713:3792   */\n      tag_130\n      tag_49\n      jump\t// in\n    tag_130:\n        /* \"#utility.yul\":3677:3794   */\n    tag_129:\n        /* \"#utility.yul\":3818:3881   */\n      tag_131\n        /* \"#utility.yul\":3873:3880   */\n      dup8\n        /* \"#utility.yul\":3864:3870   */\n      dup3\n        /* \"#utility.yul\":3853:3862   */\n      dup9\n        /* \"#utility.yul\":3849:3871   */\n      add\n        /* \"#utility.yul\":3818:3881   */\n      tag_62\n      jump\t// in\n    tag_131:\n        /* \"#utility.yul\":3808:3881   */\n      swap3\n      pop\n        /* \"#utility.yul\":3603:3891   */\n      pop\n        /* \"#utility.yul\":3930:3932   */\n      0x60\n        /* \"#utility.yul\":3956:4008   */\n      tag_132\n        /* \"#utility.yul\":4000:4007   */\n      dup8\n        /* \"#utility.yul\":3991:3997   */\n      dup3\n        /* \"#utility.yul\":3980:3989   */\n      dup9\n        /* \"#utility.yul\":3976:3998   */\n      add\n        /* \"#utility.yul\":3956:4008   */\n      tag_52\n      jump\t// in\n    tag_132:\n        /* \"#utility.yul\":3946:4008   */\n      swap2\n      pop\n        /* \"#utility.yul\":3901:4018   */\n      pop\n        /* \"#utility.yul\":2904:4025   */\n      swap3\n      swap6\n      swap2\n      swap5\n      pop\n      swap3\n      pop\n      jump\t// out\n        /* \"#utility.yul\":4031:4358   */\n    tag_13:\n        /* \"#utility.yul\":4089:4095   */\n      0x00\n        /* \"#utility.yul\":4138:4140   */\n      0x20\n        /* \"#utility.yul\":4126:4135   */\n      dup3\n        /* \"#utility.yul\":4117:4124   */\n      dup5\n        /* \"#utility.yul\":4113:4136   */\n      sub\n        /* \"#utility.yul\":4109:4141   */\n      slt\n        /* \"#utility.yul\":4106:4225   */\n      iszero\n      tag_134\n      jumpi\n        /* \"#utility.yul\":4144:4223   */\n      tag_135\n      tag_48\n      jump\t// in\n    tag_135:\n        /* \"#utility.yul\":4106:4225   */\n    tag_134:\n        /* \"#utility.yul\":4264:4265   */\n      0x00\n        /* \"#utility.yul\":4289:4341   */\n      tag_136\n        /* \"#utility.yul\":4333:4340   */\n      dup5\n        /* \"#utility.yul\":4324:4330   */\n      dup3\n        /* \"#utility.yul\":4313:4322   */\n      dup6\n        /* \"#utility.yul\":4309:4331   */\n      add\n        /* \"#utility.yul\":4289:4341   */\n      tag_52\n      jump\t// in\n    tag_136:\n        /* \"#utility.yul\":4279:4341   */\n      swap2\n      pop\n        /* \"#utility.yul\":4235:4351   */\n      pop\n        /* \"#utility.yul\":4031:4358   */\n      swap3\n      swap2\n      pop\n      pop\n      jump\t// out\n        /* \"#utility.yul\":4364:4479   */\n    tag_63:\n        /* \"#utility.yul\":4449:4472   */\n      tag_138\n        /* \"#utility.yul\":4466:4471   */\n      dup2\n        /* \"#utility.yul\":4449:4472   */\n      tag_50\n      jump\t// in\n    tag_138:\n        /* \"#utility.yul\":4444:4447   */\n      dup3\n        /* \"#utility.yul\":4437:4473   */\n      mstore\n        /* \"#utility.yul\":4364:4479   */\n      pop\n      pop\n      jump\t// out\n        /* \"#utility.yul\":4485:4584   */\n    tag_64:\n        /* \"#utility.yul\":4537:4543   */\n      0x00\n        /* \"#utility.yul\":4571:4576   */\n      dup2\n        /* \"#utility.yul\":4565:4577   */\n      mload\n        /* \"#utility.yul\":4555:4577   */\n      swap1\n      pop\n        /* \"#utility.yul\":4485:4584   */\n      swap2\n      swap1\n      pop\n      jump\t// out\n        /* \"#utility.yul\":4590:4759   */\n    tag_65:\n        /* \"#utility.yul\":4674:4685   */\n      0x00\n        /* \"#utility.yul\":4708:4714   */\n      dup3\n        /* \"#utility.yul\":4703:4706   */\n      dup3\n        /* \"#utility.yul\":4696:4715   */\n      mstore\n        /* \"#utility.yul\":4748:4752   */\n      0x20\n        /* \"#utility.yul\":4743:4746   */\n      dup3\n        /* \"#utility.yul\":4739:4753   */\n      add\n        /* \"#utility.yul\":4724:4753   */\n      swap1\n      pop\n        /* \"#utility.yul\":4590:4759   */\n      swap3\n      swap2\n      pop\n      pop\n      jump\t// out\n        /* \"#utility.yul\":4765:5011   */\n    tag_66:\n        /* \"#utility.yul\":4846:4847   */\n      0x00\n        /* \"#utility.yul\":4856:4969   */\n    tag_142:\n        /* \"#utility.yul\":4870:4876   */\n      dup4\n        /* \"#utility.yul\":4867:4868   */\n      dup2\n        /* \"#utility.yul\":4864:4877   */\n      lt\n        /* \"#utility.yul\":4856:4969   */\n      iszero\n      tag_144\n      jumpi\n        /* \"#utility.yul\":4955:4956   */\n      dup1\n        /* \"#utility.yul\":4950:4953   */\n      dup3\n        /* \"#utility.yul\":4946:4957   */\n      add\n        /* \"#utility.yul\":4940:4958   */\n      mload\n        /* \"#utility.yul\":4936:4937   */\n      dup2\n        /* \"#utility.yul\":4931:4934   */\n      dup5\n        /* \"#utility.yul\":4927:4938   */\n      add\n        /* \"#utility.yul\":4920:4959   */\n      mstore\n        /* \"#utility.yul\":4892:4894   */\n      0x20\n        /* \"#utility.yul\":4889:4890   */\n      dup2\n        /* \"#utility.yul\":4885:4895   */\n      add\n        /* \"#utility.yul\":4880:4895   */\n      swap1\n      pop\n        /* \"#utility.yul\":4856:4969   */\n      jump(tag_142)\n    tag_144:\n        /* \"#utility.yul\":5003:5004   */\n      0x00\n        /* \"#utility.yul\":4994:5000   */\n      dup5\n        /* \"#utility.yul\":4989:4992   */\n      dup5\n        /* \"#utility.yul\":4985:5001   */\n      add\n        /* \"#utility.yul\":4978:5005   */\n      mstore\n        /* \"#utility.yul\":4827:5011   */\n      pop\n        /* \"#utility.yul\":4765:5011   */\n      pop\n      pop\n      pop\n      jump\t// out\n        /* \"#utility.yul\":5017:5394   */\n    tag_67:\n        /* \"#utility.yul\":5105:5108   */\n      0x00\n        /* \"#utility.yul\":5133:5172   */\n      tag_146\n        /* \"#utility.yul\":5166:5171   */\n      dup3\n        /* \"#utility.yul\":5133:5172   */\n      tag_64\n      jump\t// in\n    tag_146:\n        /* \"#utility.yul\":5188:5259   */\n      tag_147\n        /* \"#utility.yul\":5252:5258   */\n      dup2\n        /* \"#utility.yul\":5247:5250   */\n      dup6\n        /* \"#utility.yul\":5188:5259   */\n      tag_65\n      jump\t// in\n    tag_147:\n        /* \"#utility.yul\":5181:5259   */\n      swap4\n      pop\n        /* \"#utility.yul\":5268:5333   */\n      tag_148\n        /* \"#utility.yul\":5326:5332   */\n      dup2\n        /* \"#utility.yul\":5321:5324   */\n      dup6\n        /* \"#utility.yul\":5314:5318   */\n      0x20\n        /* \"#utility.yul\":5307:5312   */\n      dup7\n        /* \"#utility.yul\":5303:5319   */\n      add\n        /* \"#utility.yul\":5268:5333   */\n      tag_66\n      jump\t// in\n    tag_148:\n        /* \"#utility.yul\":5358:5387   */\n      tag_149\n        /* \"#utility.yul\":5380:5386   */\n      dup2\n        /* \"#utility.yul\":5358:5387   */\n      tag_55\n      jump\t// in\n    tag_149:\n        /* \"#utility.yul\":5353:5356   */\n      dup5\n        /* \"#utility.yul\":5349:5388   */\n      add\n        /* \"#utility.yul\":5342:5388   */\n      swap2\n      pop\n        /* \"#utility.yul\":5109:5394   */\n      pop\n        /* \"#utility.yul\":5017:5394   */\n      swap3\n      swap2\n      pop\n      pop\n      jump\t// out\n        /* \"#utility.yul\":5400:6127   */\n    tag_19:\n        /* \"#utility.yul\":5613:5617   */\n      0x00\n        /* \"#utility.yul\":5651:5654   */\n      0x80\n        /* \"#utility.yul\":5640:5649   */\n      dup3\n        /* \"#utility.yul\":5636:5655   */\n      add\n        /* \"#utility.yul\":5628:5655   */\n      swap1\n      pop\n        /* \"#utility.yul\":5665:5734   */\n      tag_151\n        /* \"#utility.yul\":5731:5732   */\n      0x00\n        /* \"#utility.yul\":5720:5729   */\n      dup4\n        /* \"#utility.yul\":5716:5733   */\n      add\n        /* \"#utility.yul\":5707:5713   */\n      dup8\n        /* \"#utility.yul\":5665:5734   */\n      tag_63\n      jump\t// in\n    tag_151:\n        /* \"#utility.yul\":5781:5790   */\n      dup2\n        /* \"#utility.yul\":5775:5779   */\n      dup2\n        /* \"#utility.yul\":5771:5791   */\n      sub\n        /* \"#utility.yul\":5766:5768   */\n      0x20\n        /* \"#utility.yul\":5755:5764   */\n      dup4\n        /* \"#utility.yul\":5751:5769   */\n      add\n        /* \"#utility.yul\":5744:5792   */\n      mstore\n        /* \"#utility.yul\":5809:5887   */\n      tag_152\n        /* \"#utility.yul\":5882:5886   */\n      dup2\n        /* \"#utility.yul\":5873:5879   */\n      dup7\n        /* \"#utility.yul\":5809:5887   */\n      tag_67\n      jump\t// in\n    tag_152:\n        /* \"#utility.yul\":5801:5887   */\n      swap1\n      pop\n        /* \"#utility.yul\":5934:5943   */\n      dup2\n        /* \"#utility.yul\":5928:5932   */\n      dup2\n        /* \"#utility.yul\":5924:5944   */\n      sub\n        /* \"#utility.yul\":5919:5921   */\n      0x40\n        /* \"#utility.yul\":5908:5917   */\n      dup4\n        /* \"#utility.yul\":5904:5922   */\n      add\n        /* \"#utility.yul\":5897:5945   */\n      mstore\n        /* \"#utility.yul\":5962:6040   */\n      tag_153\n        /* \"#utility.yul\":6035:6039   */\n      dup2\n        /* \"#utility.yul\":6026:6032   */\n      dup6\n        /* \"#utility.yul\":5962:6040   */\n      tag_67\n      jump\t// in\n    tag_153:\n        /* \"#utility.yul\":5954:6040   */\n      swap1\n      pop\n        /* \"#utility.yul\":6050:6120   */\n      tag_154\n        /* \"#utility.yul\":6116:6118   */\n      0x60\n        /* \"#utility.yul\":6105:6114   */\n      dup4\n        /* \"#utility.yul\":6101:6119   */\n      add\n        /* \"#utility.yul\":6092:6098   */\n      dup5\n        /* \"#utility.yul\":6050:6120   */\n      tag_63\n      jump\t// in\n    tag_154:\n        /* \"#utility.yul\":5400:6127   */\n      swap6\n      swap5\n      pop\n      pop\n      pop\n      pop\n      pop\n      jump\t// out\n        /* \"#utility.yul\":6133:6351   */\n    tag_23:\n        /* \"#utility.yul\":6224:6228   */\n      0x00\n        /* \"#utility.yul\":6262:6264   */\n      0x20\n        /* \"#utility.yul\":6251:6260   */\n      dup3\n        /* \"#utility.yul\":6247:6265   */\n      add\n        /* \"#utility.yul\":6239:6265   */\n      swap1\n      pop\n        /* \"#utility.yul\":6275:6344   */\n      tag_156\n        /* \"#utility.yul\":6341:6342   */\n      0x00\n        /* \"#utility.yul\":6330:6339   */\n      dup4\n        /* \"#utility.yul\":6326:6343   */\n      add\n        /* \"#utility.yul\":6317:6323   */\n      dup5\n        /* \"#utility.yul\":6275:6344   */\n      tag_63\n      jump\t// in\n    tag_156:\n        /* \"#utility.yul\":6133:6351   */\n      swap3\n      swap2\n      pop\n      pop\n      jump\t// out\n        /* \"#utility.yul\":6357:6537   */\n    tag_68:\n        /* \"#utility.yul\":6405:6482   */\n      0x4e487b7100000000000000000000000000000000000000000000000000000000\n        /* \"#utility.yul\":6402:6403   */\n      0x00\n        /* \"#utility.yul\":6395:6483   */\n      mstore\n        /* \"#utility.yul\":6502:6506   */\n      0x11\n        /* \"#utility.yul\":6499:6500   */\n      0x04\n        /* \"#utility.yul\":6492:6507   */\n      mstore\n        /* \"#utility.yul\":6526:6530   */\n      0x24\n        /* \"#utility.yul\":6523:6524   */\n      0x00\n        /* \"#utility.yul\":6516:6531   */\n      revert\n        /* \"#utility.yul\":6543:6918   */\n    tag_28:\n        /* \"#utility.yul\":6582:6585   */\n      0x00\n        /* \"#utility.yul\":6601:6620   */\n      tag_159\n        /* \"#utility.yul\":6618:6619   */\n      dup3\n        /* \"#utility.yul\":6601:6620   */\n      tag_50\n      jump\t// in\n    tag_159:\n        /* \"#utility.yul\":6596:6620   */\n      swap2\n      pop\n        /* \"#utility.yul\":6634:6653   */\n      tag_160\n        /* \"#utility.yul\":6651:6652   */\n      dup4\n        /* \"#utility.yul\":6634:6653   */\n      tag_50\n      jump\t// in\n    tag_160:\n        /* \"#utility.yul\":6629:6653   */\n      swap3\n      pop\n        /* \"#utility.yul\":6676:6677   */\n      dup3\n        /* \"#utility.yul\":6673:6674   */\n      dup3\n        /* \"#utility.yul\":6669:6678   */\n      add\n        /* \"#utility.yul\":6662:6678   */\n      swap1\n      pop\n        /* \"#utility.yul\":6874:6875   */\n      dup3\n        /* \"#utility.yul\":6869:6872   */\n      dup2\n        /* \"#utility.yul\":6865:6876   */\n      slt\n        /* \"#utility.yul\":6858:6877   */\n      iszero\n        /* \"#utility.yul\":6854:6855   */\n      0x00\n        /* \"#utility.yul\":6851:6852   */\n      dup4\n        /* \"#utility.yul\":6847:6856   */\n      slt\n        /* \"#utility.yul\":6843:6878   */\n      and\n        /* \"#utility.yul\":6826:6827   */\n      dup4\n        /* \"#utility.yul\":6821:6824   */\n      dup3\n        /* \"#utility.yul\":6817:6828   */\n      slt\n        /* \"#utility.yul\":6812:6813   */\n      0x00\n        /* \"#utility.yul\":6809:6810   */\n      dup5\n        /* \"#utility.yul\":6805:6814   */\n      slt\n        /* \"#utility.yul\":6798:6815   */\n      iszero\n        /* \"#utility.yul\":6794:6829   */\n      and\n        /* \"#utility.yul\":6778:6888   */\n      or\n        /* \"#utility.yul\":6775:6911   */\n      iszero\n      tag_161\n      jumpi\n        /* \"#utility.yul\":6891:6909   */\n      tag_162\n      tag_68\n      jump\t// in\n    tag_162:\n        /* \"#utility.yul\":6775:6911   */\n    tag_161:\n        /* \"#utility.yul\":6543:6918   */\n      swap3\n      swap2\n      pop\n      pop\n      jump\t// out\n        /* \"#utility.yul\":6924:7104   */\n    tag_69:\n        /* \"#utility.yul\":6972:7049   */\n      0x4e487b7100000000000000000000000000000000000000000000000000000000\n        /* \"#utility.yul\":6969:6970   */\n      0x00\n        /* \"#utility.yul\":6962:7050   */\n      mstore\n        /* \"#utility.yul\":7069:7073   */\n      0x22\n        /* \"#utility.yul\":7066:7067   */\n      0x04\n        /* \"#utility.yul\":7059:7074   */\n      mstore\n        /* \"#utility.yul\":7093:7097   */\n      0x24\n        /* \"#utility.yul\":7090:7091   */\n      0x00\n        /* \"#utility.yul\":7083:7098   */\n      revert\n        /* \"#utility.yul\":7110:7430   */\n    tag_37:\n        /* \"#utility.yul\":7154:7160   */\n      0x00\n        /* \"#utility.yul\":7191:7192   */\n      0x02\n        /* \"#utility.yul\":7185:7189   */\n      dup3\n        /* \"#utility.yul\":7181:7193   */\n      div\n        /* \"#utility.yul\":7171:7193   */\n      swap1\n      pop\n        /* \"#utility.yul\":7238:7239   */\n      0x01\n        /* \"#utility.yul\":7232:7236   */\n      dup3\n        /* \"#utility.yul\":7228:7240   */\n      and\n        /* \"#utility.yul\":7259:7277   */\n      dup1\n        /* \"#utility.yul\":7249:7330   */\n      tag_165\n      jumpi\n        /* \"#utility.yul\":7315:7319   */\n      0x7f\n        /* \"#utility.yul\":7307:7313   */\n      dup3\n        /* \"#utility.yul\":7303:7320   */\n      and\n        /* \"#utility.yul\":7293:7320   */\n      swap2\n      pop\n        /* \"#utility.yul\":7249:7330   */\n    tag_165:\n        /* \"#utility.yul\":7377:7379   */\n      0x20\n        /* \"#utility.yul\":7369:7375   */\n      dup3\n        /* \"#utility.yul\":7366:7380   */\n      lt\n        /* \"#utility.yul\":7346:7364   */\n      dup2\n        /* \"#utility.yul\":7343:7381   */\n      sub\n        /* \"#utility.yul\":7340:7424   */\n      tag_166\n      jumpi\n        /* \"#utility.yul\":7396:7414   */\n      tag_167\n      tag_69\n      jump\t// in\n    tag_167:\n        /* \"#utility.yul\":7340:7424   */\n    tag_166:\n        /* \"#utility.yul\":7161:7430   */\n      pop\n        /* \"#utility.yul\":7110:7430   */\n      swap2\n      swap1\n      pop\n      jump\t// out\n        /* \"#utility.yul\":7436:7577   */\n    tag_70:\n        /* \"#utility.yul\":7485:7489   */\n      0x00\n        /* \"#utility.yul\":7508:7511   */\n      dup2\n        /* \"#utility.yul\":7500:7511   */\n      swap1\n      pop\n        /* \"#utility.yul\":7531:7534   */\n      dup2\n        /* \"#utility.yul\":7528:7529   */\n      0x00\n        /* \"#utility.yul\":7521:7535   */\n      mstore\n        /* \"#utility.yul\":7565:7569   */\n      0x20\n        /* \"#utility.yul\":7562:7563   */\n      0x00\n        /* \"#utility.yul\":7552:7570   */\n      keccak256\n        /* \"#utility.yul\":7544:7570   */\n      swap1\n      pop\n        /* \"#utility.yul\":7436:7577   */\n      swap2\n      swap1\n      pop\n      jump\t// out\n        /* \"#utility.yul\":7583:7676   */\n    tag_71:\n        /* \"#utility.yul\":7620:7626   */\n      0x00\n        /* \"#utility.yul\":7667:7669   */\n      0x20\n        /* \"#utility.yul\":7662:7664   */\n      0x1f\n        /* \"#utility.yul\":7655:7660   */\n      dup4\n        /* \"#utility.yul\":7651:7665   */\n      add\n        /* \"#utility.yul\":7647:7670   */\n      div\n        /* \"#utility.yul\":7637:7670   */\n      swap1\n      pop\n        /* \"#utility.yul\":7583:7676   */\n      swap2\n      swap1\n      pop\n      jump\t// out\n        /* \"#utility.yul\":7682:7789   */\n    tag_72:\n        /* \"#utility.yul\":7726:7734   */\n      0x00\n        /* \"#utility.yul\":7776:7781   */\n      dup3\n        /* \"#utility.yul\":7770:7774   */\n      dup3\n        /* \"#utility.yul\":7766:7782   */\n      shl\n        /* \"#utility.yul\":7745:7782   */\n      swap1\n      pop\n        /* \"#utility.yul\":7682:7789   */\n      swap3\n      swap2\n      pop\n      pop\n      jump\t// out\n        /* \"#utility.yul\":7795:8188   */\n    tag_73:\n        /* \"#utility.yul\":7864:7870   */\n      0x00\n        /* \"#utility.yul\":7914:7915   */\n      0x08\n        /* \"#utility.yul\":7902:7912   */\n      dup4\n        /* \"#utility.yul\":7898:7916   */\n      mul\n        /* \"#utility.yul\":7937:8034   */\n      tag_172\n        /* \"#utility.yul\":7967:8033   */\n      0xffffffffffffffffffffffffffffffffffffffffffffffffffffffffffffffff\n        /* \"#utility.yul\":7956:7965   */\n      dup3\n        /* \"#utility.yul\":7937:8034   */\n      tag_72\n      jump\t// in\n    tag_172:\n        /* \"#utility.yul\":8055:8094   */\n      tag_173\n        /* \"#utility.yul\":8085:8093   */\n      dup7\n        /* \"#utility.yul\":8074:8083   */\n      dup4\n        /* \"#utility.yul\":8055:8094   */\n      tag_72\n      jump\t// in\n    tag_173:\n        /* \"#utility.yul\":8043:8094   */\n      swap6\n      pop\n        /* \"#utility.yul\":8127:8131   */\n      dup1\n        /* \"#utility.yul\":8123:8132   */\n      not\n        /* \"#utility.yul\":8116:8121   */\n      dup5\n        /* \"#utility.yul\":8112:8133   */\n      and\n        /* \"#utility.yul\":8103:8133   */\n      swap4\n      pop\n        /* \"#utility.yul\":8176:8180   */\n      dup1\n        /* \"#utility.yul\":8166:8174   */\n      dup7\n        /* \"#utility.yul\":8162:8181   */\n      and\n        /* \"#utility.yul\":8155:8160   */\n      dup5\n        /* \"#utility.yul\":8152:8182   */\n      or\n        /* \"#utility.yul\":8142:8182   */\n      swap3\n      pop\n        /* \"#utility.yul\":7871:8188   */\n      pop\n      pop\n        /* \"#utility.yul\":7795:8188   */\n      swap4\n      swap3\n      pop\n      pop\n      pop\n      jump\t// out\n        /* \"#utility.yul\":8194:8271   */\n    tag_74:\n        /* \"#utility.yul\":8231:8238   */\n      0x00\n        /* \"#utility.yul\":8260:8265   */\n      dup2\n        /* \"#utility.yul\":8249:8265   */\n      swap1\n      pop\n        /* \"#utility.yul\":8194:8271   */\n      swap2\n      swap1\n      pop\n      jump\t// out\n        /* \"#utility.yul\":8277:8337   */\n    tag_75:\n        /* \"#utility.yul\":8305:8308   */\n      0x00\n        /* \"#utility.yul\":8326:8331   */\n      dup2\n        /* \"#utility.yul\":8319:8331   */\n      swap1\n      pop\n        /* \"#utility.yul\":8277:8337   */\n      swap2\n      swap1\n      pop\n      jump\t// out\n        /* \"#utility.yul\":8343:8485   */\n    tag_76:\n        /* \"#utility.yul\":8393:8402   */\n      0x00\n        /* \"#utility.yul\":8426:8479   */\n      tag_177\n        /* \"#utility.yul\":8444:8478   */\n      tag_178\n        /* \"#utility.yul\":8453:8477   */\n      tag_179\n        /* \"#utility.yul\":8471:8476   */\n      dup5\n        /* \"#utility.yul\":8453:8477   */\n      tag_74\n      jump\t// in\n    tag_179:\n        /* \"#utility.yul\":8444:8478   */\n      tag_75\n      jump\t// in\n    tag_178:\n        /* \"#utility.yul\":8426:8479   */\n      tag_74\n      jump\t// in\n    tag_177:\n        /* \"#utility.yul\":8413:8479   */\n      swap1\n      pop\n        /* \"#utility.yul\":8343:8485   */\n      swap2\n      swap1\n      pop\n      jump\t// out\n        /* \"#utility.yul\":8491:8566   */\n    tag_77:\n        /* \"#utility.yul\":8534:8537   */\n      0x00\n        /* \"#utility.yul\":8555:8560   */\n      dup2\n        /* \"#utility.yul\":8548:8560   */\n      swap1\n      pop\n        /* \"#utility.yul\":8491:8566   */\n      swap2\n      swap1\n      pop\n      jump\t// out\n        /* \"#utility.yul\":8572:8841   */\n    tag_78:\n        /* \"#utility.yul\":8682:8721   */\n      tag_182\n        /* \"#utility.yul\":8713:8720   */\n      dup4\n        /* \"#utility.yul\":8682:8721   */\n      tag_76\n      jump\t// in\n    tag_182:\n        /* \"#utility.yul\":8743:8834   */\n      tag_183\n        /* \"#utility.yul\":8792:8833   */\n      tag_184\n        /* \"#utility.yul\":8816:8832   */\n      dup3\n        /* \"#utility.yul\":8792:8833   */\n      tag_77\n      jump\t// in\n    tag_184:\n        /* \"#utility.yul\":8784:8790   */\n      dup5\n        /* \"#utility.yul\":8777:8781   */\n      dup5\n        /* \"#utility.yul\":8771:8782   */\n      sload\n        /* \"#utility.yul\":8743:8834   */\n      tag_73\n      jump\t// in\n    tag_183:\n        /* \"#utility.yul\":8737:8741   */\n      dup3\n        /* \"#utility.yul\":8730:8835   */\n      sstore\n        /* \"#utility.yul\":8648:8841   */\n      pop\n        /* \"#utility.yul\":8572:8841   */\n      pop\n      pop\n      pop\n      jump\t// out\n        /* \"#utility.yul\":8847:8920   */\n    tag_79:\n        /* \"#utility.yul\":8892:8895   */\n      0x00\n        /* \"#utility.yul\":8847:8920   */\n      swap1\n      jump\t// out\n        /* \"#utility.yul\":8926:9115   */\n    tag_80:\n        /* \"#utility.yul\":9003:9035   */\n      tag_187\n      tag_79\n      jump\t// in\n    tag_187:\n        /* \"#utility.yul\":9044:9109   */\n      tag_188\n        /* \"#utility.yul\":9102:9108   */\n      dup2\n        /* \"#utility.yul\":9094:9100   */\n      dup5\n        /* \"#utility.yul\":9088:9092   */\n      dup5\n        /* \"#utility.yul\":9044:9109   */\n      tag_78\n      jump\t// in\n    tag_188:\n        /* \"#utility.yul\":8979:9115   */\n      pop\n        /* \"#utility.yul\":8926:9115   */\n      pop\n      pop\n      jump\t// out\n        /* \"#utility.yul\":9121:9307   */\n    tag_81:\n        /* \"#utility.yul\":9181:9301   */\n    tag_190:\n        /* \"#utility.yul\":9198:9201   */\n      dup2\n        /* \"#utility.yul\":9191:9196   */\n      dup2\n        /* \"#utility.yul\":9188:9202   */\n      lt\n        /* \"#utility.yul\":9181:9301   */\n      iszero\n      tag_192\n      jumpi\n        /* \"#utility.yul\":9252:9291   */\n      tag_193\n        /* \"#utility.yul\":9289:9290   */\n      0x00\n        /* \"#utility.yul\":9282:9287   */\n      dup3\n        /* \"#utility.yul\":9252:9291   */\n      tag_80\n      jump\t// in\n    tag_193:\n        /* \"#utility.yul\":9225:9226   */\n      0x01\n        /* \"#utility.yul\":9218:9223   */\n      dup2\n        /* \"#utility.yul\":9214:9227   */\n      add\n        /* \"#utility.yul\":9205:9227   */\n      swap1\n      pop\n        /* \"#utility.yul\":9181:9301   */\n      jump(tag_190)\n    tag_192:\n        /* \"#utility.yul\":9121:9307   */\n      pop\n      pop\n      jump\t// out\n        /* \"#utility.yul\":9313:9856   */\n    tag_82:\n        /* \"#utility.yul\":9414:9416   */\n      0x1f\n        /* \"#utility.yul\":9409:9412   */\n      dup3\n        /* \"#utility.yul\":9406:9417   */\n      gt\n        /* \"#utility.yul\":9403:9849   */\n      iszero\n      tag_195\n      jumpi\n        /* \"#utility.yul\":9448:9486   */\n      tag_196\n        /* \"#utility.yul\":9480:9485   */\n      dup2\n        /* \"#utility.yul\":9448:9486   */\n      tag_70\n      jump\t// in\n    tag_196:\n        /* \"#utility.yul\":9532:9561   */\n      tag_197\n        /* \"#utility.yul\":9550:9560   */\n      dup5\n        /* \"#utility.yul\":9532:9561   */\n      tag_71\n      jump\t// in\n    tag_197:\n        /* \"#utility.yul\":9522:9530   */\n      dup2\n        /* \"#utility.yul\":9518:9562   */\n      add\n        /* \"#utility.yul\":9715:9717   */\n      0x20\n        /* \"#utility.yul\":9703:9713   */\n      dup6\n        /* \"#utility.yul\":9700:9718   */\n      lt\n        /* \"#utility.yul\":9697:9746   */\n      iszero\n      tag_198\n      jumpi\n        /* \"#utility.yul\":9736:9744   */\n      dup2\n        /* \"#utility.yul\":9721:9744   */\n      swap1\n      pop\n        /* \"#utility.yul\":9697:9746   */\n    tag_198:\n        /* \"#utility.yul\":9759:9839   */\n      tag_199\n        /* \"#utility.yul\":9815:9837   */\n      tag_200\n        /* \"#utility.yul\":9833:9836   */\n      dup6\n        /* \"#utility.yul\":9815:9837   */\n      tag_71\n      jump\t// in\n    tag_200:\n        /* \"#utility.yul\":9805:9813   */\n      dup4\n        /* \"#utility.yul\":9801:9838   */\n      add\n        /* \"#utility.yul\":9788:9799   */\n      dup3\n        /* \"#utility.yul\":9759:9839   */\n      tag_81\n      jump\t// in\n    tag_199:\n        /* \"#utility.yul\":9418:9849   */\n      pop\n      pop\n        /* \"#utility.yul\":9403:9849   */\n    tag_195:\n        /* \"#utility.yul\":9313:9856   */\n      pop\n      pop\n      pop\n      jump\t// out\n        /* \"#utility.yul\":9862:9979   */\n    tag_83:\n        /* \"#utility.yul\":9916:9924   */\n      0x00\n        /* \"#utility.yul\":9966:9971   */\n      dup3\n        /* \"#utility.yul\":9960:9964   */\n      dup3\n        /* \"#utility.yul\":9956:9972   */\n      shr\n        /* \"#utility.yul\":9935:9972   */\n      swap1\n      pop\n        /* \"#utility.yul\":9862:9979   */\n      swap3\n      swap2\n      pop\n      pop\n      jump\t// out\n        /* \"#utility.yul\":9985:10154   */\n    tag_84:\n        /* \"#utility.yul\":10029:10035   */\n      0x00\n        /* \"#utility.yul\":10062:10113   */\n      tag_203\n        /* \"#utility.yul\":10110:10111   */\n      0x00\n        /* \"#utility.yul\":10106:10112   */\n      not\n        /* \"#utility.yul\":10098:10103   */\n      dup5\n        /* \"#utility.yul\":10095:10096   */\n      0x08\n        /* \"#utility.yul\":10091:10104   */\n      mul\n        /* \"#utility.yul\":10062:10113   */\n      tag_83\n      jump\t// in\n    tag_203:\n        /* \"#utility.yul\":10058:10114   */\n      not\n        /* \"#utility.yul\":10143:10147   */\n      dup1\n        /* \"#utility.yul\":10137:10141   */\n      dup4\n        /* \"#utility.yul\":10133:10148   */\n      and\n        /* \"#utility.yul\":10123:10148   */\n      swap2\n      pop\n        /* \"#utility.yul\":10036:10154   */\n      pop\n        /* \"#utility.yul\":9985:10154   */\n      swap3\n      swap2\n      pop\n      pop\n      jump\t// out\n        /* \"#utility.yul\":10159:10454   */\n    tag_85:\n        /* \"#utility.yul\":10235:10239   */\n      0x00\n        /* \"#utility.yul\":10381:10410   */\n      tag_205\n        /* \"#utility.yul\":10406:10409   */\n      dup4\n        /* \"#utility.yul\":10400:10404   */\n      dup4\n        /* \"#utility.yul\":10381:10410   */\n      tag_84\n      jump\t// in\n    tag_205:\n        /* \"#utility.yul\":10373:10410   */\n      swap2\n      pop\n        /* \"#utility.yul\":10443:10446   */\n      dup3\n        /* \"#utility.yul\":10440:10441   */\n      0x02\n        /* \"#utility.yul\":10436:10447   */\n      mul\n        /* \"#utility.yul\":10430:10434   */\n      dup3\n        /* \"#utility.yul\":10427:10448   */\n      or\n        /* \"#utility.yul\":10419:10448   */\n      swap1\n      pop\n        /* \"#utility.yul\":10159:10454   */\n      swap3\n      swap2\n      pop\n      pop\n      jump\t// out\n        /* \"#utility.yul\":10459:11854   */\n    tag_30:\n        /* \"#utility.yul\":10576:10613   */\n      tag_207\n        /* \"#utility.yul\":10609:10612   */\n      dup3\n        /* \"#utility.yul\":10576:10613   */\n      tag_64\n      jump\t// in\n    tag_207:\n        /* \"#utility.yul\":10678:10696   */\n      0xffffffffffffffff\n        /* \"#utility.yul\":10670:10676   */\n      dup2\n        /* \"#utility.yul\":10667:10697   */\n      gt\n        /* \"#utility.yul\":10664:10720   */\n      iszero\n      tag_208\n      jumpi\n        /* \"#utility.yul\":10700:10718   */\n      tag_209\n      tag_56\n      jump\t// in\n    tag_209:\n        /* \"#utility.yul\":10664:10720   */\n    tag_208:\n        /* \"#utility.yul\":10744:10782   */\n      tag_210\n        /* \"#utility.yul\":10776:10780   */\n      dup3\n        /* \"#utility.yul\":10770:10781   */\n      sload\n        /* \"#utility.yul\":10744:10782   */\n      tag_37\n      jump\t// in\n    tag_210:\n        /* \"#utility.yul\":10829:10896   */\n      tag_211\n        /* \"#utility.yul\":10889:10895   */\n      dup3\n        /* \"#utility.yul\":10881:10887   */\n      dup3\n        /* \"#utility.yul\":10875:10879   */\n      dup6\n        /* \"#utility.yul\":10829:10896   */\n      tag_82\n      jump\t// in\n    tag_211:\n        /* \"#utility.yul\":10923:10924   */\n      0x00\n        /* \"#utility.yul\":10947:10951   */\n      0x20\n        /* \"#utility.yul\":10934:10951   */\n      swap1\n      pop\n        /* \"#utility.yul\":10979:10981   */\n      0x1f\n        /* \"#utility.yul\":10971:10977   */\n      dup4\n        /* \"#utility.yul\":10968:10982   */\n      gt\n        /* \"#utility.yul\":10996:10997   */\n      0x01\n        /* \"#utility.yul\":10991:11609   */\n      dup2\n      eq\n      tag_213\n      jumpi\n        /* \"#utility.yul\":11653:11654   */\n      0x00\n        /* \"#utility.yul\":11670:11676   */\n      dup5\n        /* \"#utility.yul\":11667:11744   */\n      iszero\n      tag_214\n      jumpi\n        /* \"#utility.yul\":11719:11728   */\n      dup3\n        /* \"#utility.yul\":11714:11717   */\n      dup8\n        /* \"#utility.yul\":11710:11729   */\n      add\n        /* \"#utility.yul\":11704:11730   */\n      mload\n        /* \"#utility.yul\":11695:11730   */\n      swap1\n      pop\n        /* \"#utility.yul\":11667:11744   */\n    tag_214:\n        /* \"#utility.yul\":11770:11837   */\n      tag_215\n        /* \"#utility.yul\":11830:11836   */\n      dup6\n        /* \"#utility.yul\":11823:11828   */\n      dup3\n        /* \"#utility.yul\":11770:11837   */\n      tag_85\n      jump\t// in\n    tag_215:\n        /* \"#utility.yul\":11764:11768   */\n      dup7\n        /* \"#utility.yul\":11757:11838   */\n      sstore\n        /* \"#utility.yul\":11626:11848   */\n      pop\n        /* \"#utility.yul\":10961:11848   */\n      jump(tag_212)\n        /* \"#utility.yul\":10991:11609   */\n    tag_213:\n        /* \"#utility.yul\":11043:11047   */\n      0x1f\n        /* \"#utility.yul\":11039:11048   */\n      not\n        /* \"#utility.yul\":11031:11037   */\n      dup5\n        /* \"#utility.yul\":11027:11049   */\n      and\n        /* \"#utility.yul\":11077:11114   */\n      tag_216\n        /* \"#utility.yul\":11109:11113   */\n      dup7\n        /* \"#utility.yul\":11077:11114   */\n      tag_70\n      jump\t// in\n    tag_216:\n        /* \"#utility.yul\":11136:11137   */\n      0x00\n        /* \"#utility.yul\":11150:11358   */\n    tag_217:\n        /* \"#utility.yul\":11164:11171   */\n      dup3\n        /* \"#utility.yul\":11161:11162   */\n      dup2\n        /* \"#utility.yul\":11158:11172   */\n      lt\n        /* \"#utility.yul\":11150:11358   */\n      iszero\n      tag_219\n      jumpi\n        /* \"#utility.yul\":11243:11252   */\n      dup5\n        /* \"#utility.yul\":11238:11241   */\n      dup10\n        /* \"#utility.yul\":11234:11253   */\n      add\n        /* \"#utility.yul\":11228:11254   */\n      mload\n        /* \"#utility.yul\":11220:11226   */\n      dup3\n        /* \"#utility.yul\":11213:11255   */\n      sstore\n        /* \"#utility.yul\":11294:11295   */\n      0x01\n        /* \"#utility.yul\":11286:11292   */\n      dup3\n        /* \"#utility.yul\":11282:11296   */\n      add\n        /* \"#utility.yul\":11272:11296   */\n      swap2\n      pop\n        /* \"#utility.yul\":11341:11343   */\n      0x20\n        /* \"#utility.yul\":11330:11339   */\n      dup6\n        /* \"#utility.yul\":11326:11344   */\n      add\n        /* \"#utility.yul\":11313:11344   */\n      swap5\n      pop\n        /* \"#utility.yul\":11187:11191   */\n      0x20\n        /* \"#utility.yul\":11184:11185   */\n      dup2\n        /* \"#utility.yul\":11180:11192   */\n      add\n        /* \"#utility.yul\":11175:11192   */\n      swap1\n      pop\n        /* \"#utility.yul\":11150:11358   */\n      jump(tag_217)\n    tag_219:\n        /* \"#utility.yul\":11386:11392   */\n      dup7\n        /* \"#utility.yul\":11377:11384   */\n      dup4\n        /* \"#utility.yul\":11374:11393   */\n      lt\n        /* \"#utility.yul\":11371:11550   */\n      iszero\n      tag_220\n      jumpi\n        /* \"#utility.yul\":11444:11453   */\n      dup5\n        /* \"#utility.yul\":11439:11442   */\n      dup10\n        /* \"#utility.yul\":11435:11454   */\n      add\n        /* \"#utility.yul\":11429:11455   */\n      mload\n        /* \"#utility.yul\":11487:11535   */\n      tag_221\n        /* \"#utility.yul\":11529:11533   */\n      0x1f\n        /* \"#utility.yul\":11521:11527   */\n      dup10\n        /* \"#utility.yul\":11517:11534   */\n      and\n        /* \"#utility.yul\":11506:11515   */\n      dup3\n        /* \"#utility.yul\":11487:11535   */\n      tag_84\n      jump\t// in\n    tag_221:\n        /* \"#utility.yul\":11479:11485   */\n      dup4\n        /* \"#utility.yul\":11472:11536   */\n      sstore\n        /* \"#utility.yul\":11394:11550   */\n      pop\n        /* \"#utility.yul\":11371:11550   */\n    tag_220:\n        /* \"#utility.yul\":11596:11597   */\n      0x01\n        /* \"#utility.yul\":11592:11593   */\n      0x02\n        /* \"#utility.yul\":11584:11590   */\n      dup9\n        /* \"#utility.yul\":11580:11594   */\n      mul\n        /* \"#utility.yul\":11576:11598   */\n      add\n        /* \"#utility.yul\":11570:11574   */\n      dup9\n        /* \"#utility.yul\":11563:11599   */\n      sstore\n        /* \"#utility.yul\":10998:11609   */\n      pop\n      pop\n      pop\n        /* \"#utility.yul\":10961:11848   */\n    tag_212:\n      pop\n        /* \"#utility.yul\":10551:11854   */\n      pop\n      pop\n      pop\n        /* \"#utility.yul\":10459:11854   */\n      pop\n      pop\n      jump\t// out\n\n    auxdata: 0xa2646970667358221220e498021005df749eb4c7948f4464ecfe6e23d15c22f21632204357b047fd6e6e64736f6c63430008160033\n}\n",
				"bytecode": {
					"linkReferences": {},
					"object": "60806040525f600155348015610013575f80fd5b50335f806101000a81548173ffffffffffffffffffffffffffffffffffffffff021916908373ffffffffffffffffffffffffffffffffffffffff160217905550610a3f806100605f395ff3fe608060405234801561000f575f80fd5b506004361061004a575f3560e01c80639e676bcf1461004e578063bc542e721461006a578063cd9f839814610086578063fe615f2a146100b9575b5f80fd5b6100686004803603810190610063919061050f565b6100d7565b005b610084600480360381019061007f91906105ab565b6101bc565b005b6100a0600480360381019061009b91906105ab565b610251565b6040516100b0949392919061065f565b60405180910390f35b6100c1610389565b6040516100ce91906106b0565b60405180910390f35b3373ffffffffffffffffffffffffffffffffffffffff165f8054906101000a900473ffffffffffffffffffffffffffffffffffffffff1673ffffffffffffffffffffffffffffffffffffffff161461012d575f80fd5b6001805461013b91906106f6565b60018190555060405180608001604052808581526020018481526020018381526020018281525060025f60015481526020019081526020015f205f820151815f01556020820151816001019081610192919061093a565b5060408201518160020190816101a8919061093a565b506060820151816003015590505050505050565b3373ffffffffffffffffffffffffffffffffffffffff165f8054906101000a900473ffffffffffffffffffffffffffffffffffffffff1673ffffffffffffffffffffffffffffffffffffffff1614610212575f80fd5b8060025f60015481526020019081526020015f206003015461023491906106f6565b60025f60015481526020019081526020015f206003018190555050565b6002602052805f5260405f205f91509050805f01549080600101805461027690610764565b80601f01602080910402602001604051908101604052809291908181526020018280546102a290610764565b80156102ed5780601f106102c4576101008083540402835291602001916102ed565b820191905f5260205f20905b8154815290600101906020018083116102d057829003601f168201915b50505050509080600201805461030290610764565b80601f016020809104026020016040519081016040528092919081815260200182805461032e90610764565b80156103795780601f1061035057610100808354040283529160200191610379565b820191905f5260205f20905b81548152906001019060200180831161035c57829003601f168201915b5050505050908060030154905084565b60015481565b5f604051905090565b5f80fd5b5f80fd5b5f819050919050565b6103b2816103a0565b81146103bc575f80fd5b50565b5f813590506103cd816103a9565b92915050565b5f80fd5b5f80fd5b5f601f19601f8301169050919050565b7f4e487b71000000000000000000000000000000000000000000000000000000005f52604160045260245ffd5b610421826103db565b810181811067ffffffffffffffff821117156104405761043f6103eb565b5b80604052505050565b5f61045261038f565b905061045e8282610418565b919050565b5f67ffffffffffffffff82111561047d5761047c6103eb565b5b610486826103db565b9050602081019050919050565b828183375f83830152505050565b5f6104b36104ae84610463565b610449565b9050828152602081018484840111156104cf576104ce6103d7565b5b6104da848285610493565b509392505050565b5f82601f8301126104f6576104f56103d3565b5b81356105068482602086016104a1565b91505092915050565b5f805f806080858703121561052757610526610398565b5b5f610534878288016103bf565b945050602085013567ffffffffffffffff8111156105555761055461039c565b5b610561878288016104e2565b935050604085013567ffffffffffffffff8111156105825761058161039c565b5b61058e878288016104e2565b925050606061059f878288016103bf565b91505092959194509250565b5f602082840312156105c0576105bf610398565b5b5f6105cd848285016103bf565b91505092915050565b6105df816103a0565b82525050565b5f81519050919050565b5f82825260208201905092915050565b5f5b8381101561061c578082015181840152602081019050610601565b5f8484015250505050565b5f610631826105e5565b61063b81856105ef565b935061064b8185602086016105ff565b610654816103db565b840191505092915050565b5f6080820190506106725f8301876105d6565b81810360208301526106848186610627565b905081810360408301526106988185610627565b90506106a760608301846105d6565b95945050505050565b5f6020820190506106c35f8301846105d6565b92915050565b7f4e487b71000000000000000000000000000000000000000000000000000000005f52601160045260245ffd5b5f610700826103a0565b915061070b836103a0565b92508282019050828112155f8312168382125f841215161715610731576107306106c9565b5b92915050565b7f4e487b71000000000000000000000000000000000000000000000000000000005f52602260045260245ffd5b5f600282049050600182168061077b57607f821691505b60208210810361078e5761078d610737565b5b50919050565b5f819050815f5260205f209050919050565b5f6020601f8301049050919050565b5f82821b905092915050565b5f600883026107f07fffffffffffffffffffffffffffffffffffffffffffffffffffffffffffffffff826107b5565b6107fa86836107b5565b95508019841693508086168417925050509392505050565b5f819050919050565b5f819050919050565b5f61083e61083961083484610812565b61081b565b610812565b9050919050565b5f819050919050565b61085783610824565b61086b61086382610845565b8484546107c1565b825550505050565b5f90565b61087f610873565b61088a81848461084e565b505050565b5b818110156108ad576108a25f82610877565b600181019050610890565b5050565b601f8211156108f2576108c381610794565b6108cc846107a6565b810160208510156108db578190505b6108ef6108e7856107a6565b83018261088f565b50505b505050565b5f82821c905092915050565b5f6109125f19846008026108f7565b1980831691505092915050565b5f61092a8383610903565b9150826002028217905092915050565b610943826105e5565b67ffffffffffffffff81111561095c5761095b6103eb565b5b6109668254610764565b6109718282856108b1565b5f60209050601f8311600181146109a2575f8415610990578287015190505b61099a858261091f565b865550610a01565b601f1984166109b086610794565b5f5b828110156109d7578489015182556001820191506020850194506020810190506109b2565b868310156109f457848901516109f0601f891682610903565b8355505b6001600288020188555050505b50505050505056fea2646970667358221220e498021005df749eb4c7948f4464ecfe6e23d15c22f21632204357b047fd6e6e64736f6c63430008160033",
					"opcodes": "PUSH1 0x80 PUSH1 0x40 MSTORE PUSH0 PUSH1 0x1 SSTORE CALLVALUE DUP1 ISZERO PUSH2 0x13 JUMPI PUSH0 DUP1 REVERT JUMPDEST POP CALLER PUSH0 DUP1 PUSH2 0x100 EXP DUP2 SLOAD DUP2 PUSH20 0xFFFFFFFFFFFFFFFFFFFFFFFFFFFFFFFFFFFFFFFF MUL NOT AND SWAP1 DUP4 PUSH20 0xFFFFFFFFFFFFFFFFFFFFFFFFFFFFFFFFFFFFFFFF AND MUL OR SWAP1 SSTORE POP PUSH2 0xA3F DUP1 PUSH2 0x60 PUSH0 CODECOPY PUSH0 RETURN INVALID PUSH1 0x80 PUSH1 0x40 MSTORE CALLVALUE DUP1 ISZERO PUSH2 0xF JUMPI PUSH0 DUP1 REVERT JUMPDEST POP PUSH1 0x4 CALLDATASIZE LT PUSH2 0x4A JUMPI PUSH0 CALLDATALOAD PUSH1 0xE0 SHR DUP1 PUSH4 0x9E676BCF EQ PUSH2 0x4E JUMPI DUP1 PUSH4 0xBC542E72 EQ PUSH2 0x6A JUMPI DUP1 PUSH4 0xCD9F8398 EQ PUSH2 0x86 JUMPI DUP1 PUSH4 0xFE615F2A EQ PUSH2 0xB9 JUMPI JUMPDEST PUSH0 DUP1 REVERT JUMPDEST PUSH2 0x68 PUSH1 0x4 DUP1 CALLDATASIZE SUB DUP2 ADD SWAP1 PUSH2 0x63 SWAP2 SWAP1 PUSH2 0x50F JUMP JUMPDEST PUSH2 0xD7 JUMP JUMPDEST STOP JUMPDEST PUSH2 0x84 PUSH1 0x4 DUP1 CALLDATASIZE SUB DUP2 ADD SWAP1 PUSH2 0x7F SWAP2 SWAP1 PUSH2 0x5AB JUMP JUMPDEST PUSH2 0x1BC JUMP JUMPDEST STOP JUMPDEST PUSH2 0xA0 PUSH1 0x4 DUP1 CALLDATASIZE SUB DUP2 ADD SWAP1 PUSH2 0x9B SWAP2 SWAP1 PUSH2 0x5AB JUMP JUMPDEST PUSH2 0x251 JUMP JUMPDEST PUSH1 0x40 MLOAD PUSH2 0xB0 SWAP5 SWAP4 SWAP3 SWAP2 SWAP1 PUSH2 0x65F JUMP JUMPDEST PUSH1 0x40 MLOAD DUP1 SWAP2 SUB SWAP1 RETURN JUMPDEST PUSH2 0xC1 PUSH2 0x389 JUMP JUMPDEST PUSH1 0x40 MLOAD PUSH2 0xCE SWAP2 SWAP1 PUSH2 0x6B0 JUMP JUMPDEST PUSH1 0x40 MLOAD DUP1 SWAP2 SUB SWAP1 RETURN JUMPDEST CALLER PUSH20 0xFFFFFFFFFFFFFFFFFFFFFFFFFFFFFFFFFFFFFFFF AND PUSH0 DUP1 SLOAD SWAP1 PUSH2 0x100 EXP SWAP1 DIV PUSH20 0xFFFFFFFFFFFFFFFFFFFFFFFFFFFFFFFFFFFFFFFF AND PUSH20 0xFFFFFFFFFFFFFFFFFFFFFFFFFFFFFFFFFFFFFFFF AND EQ PUSH2 0x12D JUMPI PUSH0 DUP1 REVERT JUMPDEST PUSH1 0x1 DUP1 SLOAD PUSH2 0x13B SWAP2 SWAP1 PUSH2 0x6F6 JUMP JUMPDEST PUSH1 0x1 DUP2 SWAP1 SSTORE POP PUSH1 0x40 MLOAD DUP1 PUSH1 0x80 ADD PUSH1 0x40 MSTORE DUP1 DUP6 DUP2 MSTORE PUSH1 0x20 ADD DUP5 DUP2 MSTORE PUSH1 0x20 ADD DUP4 DUP2 MSTORE PUSH1 0x20 ADD DUP3 DUP2 MSTORE POP PUSH1 0x2 PUSH0 PUSH1 0x1 SLOAD DUP2 MSTORE PUSH1 0x20 ADD SWAP1 DUP2 MSTORE PUSH1 0x20 ADD PUSH0 KECCAK256 PUSH0 DUP3 ADD MLOAD DUP2 PUSH0 ADD SSTORE PUSH1 0x20 DUP3 ADD MLOAD DUP2 PUSH1 0x1 ADD SWAP1 DUP2 PUSH2 0x192 SWAP2 SWAP1 PUSH2 0x93A JUMP JUMPDEST POP PUSH1 0x40 DUP3 ADD MLOAD DUP2 PUSH1 0x2 ADD SWAP1 DUP2 PUSH2 0x1A8 SWAP2 SWAP1 PUSH2 0x93A JUMP JUMPDEST POP PUSH1 0x60 DUP3 ADD MLOAD DUP2 PUSH1 0x3 ADD SSTORE SWAP1 POP POP POP POP POP POP JUMP JUMPDEST CALLER PUSH20 0xFFFFFFFFFFFFFFFFFFFFFFFFFFFFFFFFFFFFFFFF AND PUSH0 DUP1 SLOAD SWAP1 PUSH2 0x100 EXP SWAP1 DIV PUSH20 0xFFFFFFFFFFFFFFFFFFFFFFFFFFFFFFFFFFFFFFFF AND PUSH20 0xFFFFFFFFFFFFFFFFFFFFFFFFFFFFFFFFFFFFFFFF AND EQ PUSH2 0x212 JUMPI PUSH0 DUP1 REVERT JUMPDEST DUP1 PUSH1 0x2 PUSH0 PUSH1 0x1 SLOAD DUP2 MSTORE PUSH1 0x20 ADD SWAP1 DUP2 MSTORE PUSH1 0x20 ADD PUSH0 KECCAK256 PUSH1 0x3 ADD SLOAD PUSH2 0x234 SWAP2 SWAP1 PUSH2 0x6F6 JUMP JUMPDEST PUSH1 0x2 PUSH0 PUSH1 0x1 SLOAD DUP2 MSTORE PUSH1 0x20 ADD SWAP1 DUP2 MSTORE PUSH1 0x20 ADD PUSH0 KECCAK256 PUSH1 0x3 ADD DUP2 SWAP1 SSTORE POP POP JUMP JUMPDEST PUSH1 0x2 PUSH1 0x20 MSTORE DUP1 PUSH0 MSTORE PUSH1 0x40 PUSH0 KECCAK256 PUSH0 SWAP2 POP SWAP1 POP DUP1 PUSH0 ADD SLOAD SWAP1 DUP1 PUSH1 0x1 ADD DUP1 SLOAD PUSH2 0x276 SWAP1 PUSH2 0x764 JUMP JUMPDEST DUP1 PUSH1 0x1F ADD PUSH1 0x20 DUP1 SWAP2 DIV MUL PUSH1 0x20 ADD PUSH1 0x40 MLOAD SWAP1 DUP2 ADD PUSH1 0x40 MSTORE DUP1 SWAP3 SWAP2 SWAP1 DUP2 DUP2 MSTORE PUSH1 0x20 ADD DUP3 DUP1 SLOAD PUSH2 0x2A2 SWAP1 PUSH2 0x764 JUMP JUMPDEST DUP1 ISZERO PUSH2 0x2ED JUMPI DUP1 PUSH1 0x1F LT PUSH2 0x2C4 JUMPI PUSH2 0x100 DUP1 DUP4 SLOAD DIV MUL DUP4 MSTORE SWAP2 PUSH1 0x20 ADD SWAP2 PUSH2 0x2ED JUMP JUMPDEST DUP3 ADD SWAP2 SWAP1 PUSH0 MSTORE PUSH1 0x20 PUSH0 KECCAK256 SWAP1 JUMPDEST DUP2 SLOAD DUP2 MSTORE SWAP1 PUSH1 0x1 ADD SWAP1 PUSH1 0x20 ADD DUP1 DUP4 GT PUSH2 0x2D0 JUMPI DUP3 SWAP1 SUB PUSH1 0x1F AND DUP3 ADD SWAP2 JUMPDEST POP POP POP POP POP SWAP1 DUP1 PUSH1 0x2 ADD DUP1 SLOAD PUSH2 0x302 SWAP1 PUSH2 0x764 JUMP JUMPDEST DUP1 PUSH1 0x1F ADD PUSH1 0x20 DUP1 SWAP2 DIV MUL PUSH1 0x20 ADD PUSH1 0x40 MLOAD SWAP1 DUP2 ADD PUSH1 0x40 MSTORE DUP1 SWAP3 SWAP2 SWAP1 DUP2 DUP2 MSTORE PUSH1 0x20 ADD DUP3 DUP1 SLOAD PUSH2 0x32E SWAP1 PUSH2 0x764 JUMP JUMPDEST DUP1 ISZERO PUSH2 0x379 JUMPI DUP1 PUSH1 0x1F LT PUSH2 0x350 JUMPI PUSH2 0x100 DUP1 DUP4 SLOAD DIV MUL DUP4 MSTORE SWAP2 PUSH1 0x20 ADD SWAP2 PUSH2 0x379 JUMP JUMPDEST DUP3 ADD SWAP2 SWAP1 PUSH0 MSTORE PUSH1 0x20 PUSH0 KECCAK256 SWAP1 JUMPDEST DUP2 SLOAD DUP2 MSTORE SWAP1 PUSH1 0x1 ADD SWAP1 PUSH1 0x20 ADD DUP1 DUP4 GT PUSH2 0x35C JUMPI DUP3 SWAP1 SUB PUSH1 0x1F AND DUP3 ADD SWAP2 JUMPDEST POP POP POP POP POP SWAP1 DUP1 PUSH1 0x3 ADD SLOAD SWAP1 POP DUP5 JUMP JUMPDEST PUSH1 0x1 SLOAD DUP2 JUMP JUMPDEST PUSH0 PUSH1 0x40 MLOAD SWAP1 POP SWAP1 JUMP JUMPDEST PUSH0 DUP1 REVERT JUMPDEST PUSH0 DUP1 REVERT JUMPDEST PUSH0 DUP2 SWAP1 POP SWAP2 SWAP1 POP JUMP JUMPDEST PUSH2 0x3B2 DUP2 PUSH2 0x3A0 JUMP JUMPDEST DUP2 EQ PUSH2 0x3BC JUMPI PUSH0 DUP1 REVERT JUMPDEST POP JUMP JUMPDEST PUSH0 DUP2 CALLDATALOAD SWAP1 POP PUSH2 0x3CD DUP2 PUSH2 0x3A9 JUMP JUMPDEST SWAP3 SWAP2 POP POP JUMP JUMPDEST PUSH0 DUP1 REVERT JUMPDEST PUSH0 DUP1 REVERT JUMPDEST PUSH0 PUSH1 0x1F NOT PUSH1 0x1F DUP4 ADD AND SWAP1 POP SWAP2 SWAP1 POP JUMP JUMPDEST PUSH32 0x4E487B7100000000000000000000000000000000000000000000000000000000 PUSH0 MSTORE PUSH1 0x41 PUSH1 0x4 MSTORE PUSH1 0x24 PUSH0 REVERT JUMPDEST PUSH2 0x421 DUP3 PUSH2 0x3DB JUMP JUMPDEST DUP2 ADD DUP2 DUP2 LT PUSH8 0xFFFFFFFFFFFFFFFF DUP3 GT OR ISZERO PUSH2 0x440 JUMPI PUSH2 0x43F PUSH2 0x3EB JUMP JUMPDEST JUMPDEST DUP1 PUSH1 0x40 MSTORE POP POP POP JUMP JUMPDEST PUSH0 PUSH2 0x452 PUSH2 0x38F JUMP JUMPDEST SWAP1 POP PUSH2 0x45E DUP3 DUP3 PUSH2 0x418 JUMP JUMPDEST SWAP2 SWAP1 POP JUMP JUMPDEST PUSH0 PUSH8 0xFFFFFFFFFFFFFFFF DUP3 GT ISZERO PUSH2 0x47D JUMPI PUSH2 0x47C PUSH2 0x3EB JUMP JUMPDEST JUMPDEST PUSH2 0x486 DUP3 PUSH2 0x3DB JUMP JUMPDEST SWAP1 POP PUSH1 0x20 DUP2 ADD SWAP1 POP SWAP2 SWAP1 POP JUMP JUMPDEST DUP3 DUP2 DUP4 CALLDATACOPY PUSH0 DUP4 DUP4 ADD MSTORE POP POP POP JUMP JUMPDEST PUSH0 PUSH2 0x4B3 PUSH2 0x4AE DUP5 PUSH2 0x463 JUMP JUMPDEST PUSH2 0x449 JUMP JUMPDEST SWAP1 POP DUP3 DUP2 MSTORE PUSH1 0x20 DUP2 ADD DUP5 DUP5 DUP5 ADD GT ISZERO PUSH2 0x4CF JUMPI PUSH2 0x4CE PUSH2 0x3D7 JUMP JUMPDEST JUMPDEST PUSH2 0x4DA DUP5 DUP3 DUP6 PUSH2 0x493 JUMP JUMPDEST POP SWAP4 SWAP3 POP POP POP JUMP JUMPDEST PUSH0 DUP3 PUSH1 0x1F DUP4 ADD SLT PUSH2 0x4F6 JUMPI PUSH2 0x4F5 PUSH2 0x3D3 JUMP JUMPDEST JUMPDEST DUP2 CALLDATALOAD PUSH2 0x506 DUP5 DUP3 PUSH1 0x20 DUP7 ADD PUSH2 0x4A1 JUMP JUMPDEST SWAP2 POP POP SWAP3 SWAP2 POP POP JUMP JUMPDEST PUSH0 DUP1 PUSH0 DUP1 PUSH1 0x80 DUP6 DUP8 SUB SLT ISZERO PUSH2 0x527 JUMPI PUSH2 0x526 PUSH2 0x398 JUMP JUMPDEST JUMPDEST PUSH0 PUSH2 0x534 DUP8 DUP3 DUP9 ADD PUSH2 0x3BF JUMP JUMPDEST SWAP5 POP POP PUSH1 0x20 DUP6 ADD CALLDATALOAD PUSH8 0xFFFFFFFFFFFFFFFF DUP2 GT ISZERO PUSH2 0x555 JUMPI PUSH2 0x554 PUSH2 0x39C JUMP JUMPDEST JUMPDEST PUSH2 0x561 DUP8 DUP3 DUP9 ADD PUSH2 0x4E2 JUMP JUMPDEST SWAP4 POP POP PUSH1 0x40 DUP6 ADD CALLDATALOAD PUSH8 0xFFFFFFFFFFFFFFFF DUP2 GT ISZERO PUSH2 0x582 JUMPI PUSH2 0x581 PUSH2 0x39C JUMP JUMPDEST JUMPDEST PUSH2 0x58E DUP8 DUP3 DUP9 ADD PUSH2 0x4E2 JUMP JUMPDEST SWAP3 POP POP PUSH1 0x60 PUSH2 0x59F DUP8 DUP3 DUP9 ADD PUSH2 0x3BF JUMP JUMPDEST SWAP2 POP POP SWAP3 SWAP6 SWAP2 SWAP5 POP SWAP3 POP JUMP JUMPDEST PUSH0 PUSH1 0x20 DUP3 DUP5 SUB SLT ISZERO PUSH2 0x5C0 JUMPI PUSH2 0x5BF PUSH2 0x398 JUMP JUMPDEST JUMPDEST PUSH0 PUSH2 0x5CD DUP5 DUP3 DUP6 ADD PUSH2 0x3BF JUMP JUMPDEST SWAP2 POP POP SWAP3 SWAP2 POP POP JUMP JUMPDEST PUSH2 0x5DF DUP2 PUSH2 0x3A0 JUMP JUMPDEST DUP3 MSTORE POP POP JUMP JUMPDEST PUSH0 DUP2 MLOAD SWAP1 POP SWAP2 SWAP1 POP JUMP JUMPDEST PUSH0 DUP3 DUP3 MSTORE PUSH1 0x20 DUP3 ADD SWAP1 POP SWAP3 SWAP2 POP POP JUMP JUMPDEST PUSH0 JUMPDEST DUP4 DUP2 LT ISZERO PUSH2 0x61C JUMPI DUP1 DUP3 ADD MLOAD DUP2 DUP5 ADD MSTORE PUSH1 0x20 DUP2 ADD SWAP1 POP PUSH2 0x601 JUMP JUMPDEST PUSH0 DUP5 DUP5 ADD MSTORE POP POP POP POP JUMP JUMPDEST PUSH0 PUSH2 0x631 DUP3 PUSH2 0x5E5 JUMP JUMPDEST PUSH2 0x63B DUP2 DUP6 PUSH2 0x5EF JUMP JUMPDEST SWAP4 POP PUSH2 0x64B DUP2 DUP6 PUSH1 0x20 DUP7 ADD PUSH2 0x5FF JUMP JUMPDEST PUSH2 0x654 DUP2 PUSH2 0x3DB JUMP JUMPDEST DUP5 ADD SWAP2 POP POP SWAP3 SWAP2 POP POP JUMP JUMPDEST PUSH0 PUSH1 0x80 DUP3 ADD SWAP1 POP PUSH2 0x672 PUSH0 DUP4 ADD DUP8 PUSH2 0x5D6 JUMP JUMPDEST DUP2 DUP2 SUB PUSH1 0x20 DUP4 ADD MSTORE PUSH2 0x684 DUP2 DUP7 PUSH2 0x627 JUMP JUMPDEST SWAP1 POP DUP2 DUP2 SUB PUSH1 0x40 DUP4 ADD MSTORE PUSH2 0x698 DUP2 DUP6 PUSH2 0x627 JUMP JUMPDEST SWAP1 POP PUSH2 0x6A7 PUSH1 0x60 DUP4 ADD DUP5 PUSH2 0x5D6 JUMP JUMPDEST SWAP6 SWAP5 POP POP POP POP POP JUMP JUMPDEST PUSH0 PUSH1 0x20 DUP3 ADD SWAP1 POP PUSH2 0x6C3 PUSH0 DUP4 ADD DUP5 PUSH2 0x5D6 JUMP JUMPDEST SWAP3 SWAP2 POP POP JUMP JUMPDEST PUSH32 0x4E487B7100000000000000000000000000000000000000000000000000000000 PUSH0 MSTORE PUSH1 0x11 PUSH1 0x4 MSTORE PUSH1 0x24 PUSH0 REVERT JUMPDEST PUSH0 PUSH2 0x700 DUP3 PUSH2 0x3A0 JUMP JUMPDEST SWAP2 POP PUSH2 0x70B DUP4 PUSH2 0x3A0 JUMP JUMPDEST SWAP3 POP DUP3 DUP3 ADD SWAP1 POP DUP3 DUP2 SLT ISZERO PUSH0 DUP4 SLT AND DUP4 DUP3 SLT PUSH0 DUP5 SLT ISZERO AND OR ISZERO PUSH2 0x731 JUMPI PUSH2 0x730 PUSH2 0x6C9 JUMP JUMPDEST JUMPDEST SWAP3 SWAP2 POP POP JUMP JUMPDEST PUSH32 0x4E487B7100000000000000000000000000000000000000000000000000000000 PUSH0 MSTORE PUSH1 0x22 PUSH1 0x4 MSTORE PUSH1 0x24 PUSH0 REVERT JUMPDEST PUSH0 PUSH1 0x2 DUP3 DIV SWAP1 POP PUSH1 0x1 DUP3 AND DUP1 PUSH2 0x77B JUMPI PUSH1 0x7F DUP3 AND SWAP2 POP JUMPDEST PUSH1 0x20 DUP3 LT DUP2 SUB PUSH2 0x78E JUMPI PUSH2 0x78D PUSH2 0x737 JUMP JUMPDEST JUMPDEST POP SWAP2 SWAP1 POP JUMP JUMPDEST PUSH0 DUP2 SWAP1 POP DUP2 PUSH0 MSTORE PUSH1 0x20 PUSH0 KECCAK256 SWAP1 POP SWAP2 SWAP1 POP JUMP JUMPDEST PUSH0 PUSH1 0x20 PUSH1 0x1F DUP4 ADD DIV SWAP1 POP SWAP2 SWAP1 POP JUMP JUMPDEST PUSH0 DUP3 DUP3 SHL SWAP1 POP SWAP3 SWAP2 POP POP JUMP JUMPDEST PUSH0 PUSH1 0x8 DUP4 MUL PUSH2 0x7F0 PUSH32 0xFFFFFFFFFFFFFFFFFFFFFFFFFFFFFFFFFFFFFFFFFFFFFFFFFFFFFFFFFFFFFFFF DUP3 PUSH2 0x7B5 JUMP JUMPDEST PUSH2 0x7FA DUP7 DUP4 PUSH2 0x7B5 JUMP JUMPDEST SWAP6 POP DUP1 NOT DUP5 AND SWAP4 POP DUP1 DUP7 AND DUP5 OR SWAP3 POP POP POP SWAP4 SWAP3 POP POP POP JUMP JUMPDEST PUSH0 DUP2 SWAP1 POP SWAP2 SWAP1 POP JUMP JUMPDEST PUSH0 DUP2 SWAP1 POP SWAP2 SWAP1 POP JUMP JUMPDEST PUSH0 PUSH2 0x83E PUSH2 0x839 PUSH2 0x834 DUP5 PUSH2 0x812 JUMP JUMPDEST PUSH2 0x81B JUMP JUMPDEST PUSH2 0x812 JUMP JUMPDEST SWAP1 POP SWAP2 SWAP1 POP JUMP JUMPDEST PUSH0 DUP2 SWAP1 POP SWAP2 SWAP1 POP JUMP JUMPDEST PUSH2 0x857 DUP4 PUSH2 0x824 JUMP JUMPDEST PUSH2 0x86B PUSH2 0x863 DUP3 PUSH2 0x845 JUMP JUMPDEST DUP5 DUP5 SLOAD PUSH2 0x7C1 JUMP JUMPDEST DUP3 SSTORE POP POP POP POP JUMP JUMPDEST PUSH0 SWAP1 JUMP JUMPDEST PUSH2 0x87F PUSH2 0x873 JUMP JUMPDEST PUSH2 0x88A DUP2 DUP5 DUP5 PUSH2 0x84E JUMP JUMPDEST POP POP POP JUMP JUMPDEST JUMPDEST DUP2 DUP2 LT ISZERO PUSH2 0x8AD JUMPI PUSH2 0x8A2 PUSH0 DUP3 PUSH2 0x877 JUMP JUMPDEST PUSH1 0x1 DUP2 ADD SWAP1 POP PUSH2 0x890 JUMP JUMPDEST POP POP JUMP JUMPDEST PUSH1 0x1F DUP3 GT ISZERO PUSH2 0x8F2 JUMPI PUSH2 0x8C3 DUP2 PUSH2 0x794 JUMP JUMPDEST PUSH2 0x8CC DUP5 PUSH2 0x7A6 JUMP JUMPDEST DUP2 ADD PUSH1 0x20 DUP6 LT ISZERO PUSH2 0x8DB JUMPI DUP2 SWAP1 POP JUMPDEST PUSH2 0x8EF PUSH2 0x8E7 DUP6 PUSH2 0x7A6 JUMP JUMPDEST DUP4 ADD DUP3 PUSH2 0x88F JUMP JUMPDEST POP POP JUMPDEST POP POP POP JUMP JUMPDEST PUSH0 DUP3 DUP3 SHR SWAP1 POP SWAP3 SWAP2 POP POP JUMP JUMPDEST PUSH0 PUSH2 0x912 PUSH0 NOT DUP5 PUSH1 0x8 MUL PUSH2 0x8F7 JUMP JUMPDEST NOT DUP1 DUP4 AND SWAP2 POP POP SWAP3 SWAP2 POP POP JUMP JUMPDEST PUSH0 PUSH2 0x92A DUP4 DUP4 PUSH2 0x903 JUMP JUMPDEST SWAP2 POP DUP3 PUSH1 0x2 MUL DUP3 OR SWAP1 POP SWAP3 SWAP2 POP POP JUMP JUMPDEST PUSH2 0x943 DUP3 PUSH2 0x5E5 JUMP JUMPDEST PUSH8 0xFFFFFFFFFFFFFFFF DUP2 GT ISZERO PUSH2 0x95C JUMPI PUSH2 0x95B PUSH2 0x3EB JUMP JUMPDEST JUMPDEST PUSH2 0x966 DUP3 SLOAD PUSH2 0x764 JUMP JUMPDEST PUSH2 0x971 DUP3 DUP3 DUP6 PUSH2 0x8B1 JUMP JUMPDEST PUSH0 PUSH1 0x20 SWAP1 POP PUSH1 0x1F DUP4 GT PUSH1 0x1 DUP2 EQ PUSH2 0x9A2 JUMPI PUSH0 DUP5 ISZERO PUSH2 0x990 JUMPI DUP3 DUP8 ADD MLOAD SWAP1 POP JUMPDEST PUSH2 0x99A DUP6 DUP3 PUSH2 0x91F JUMP JUMPDEST DUP7 SSTORE POP PUSH2 0xA01 JUMP JUMPDEST PUSH1 0x1F NOT DUP5 AND PUSH2 0x9B0 DUP7 PUSH2 0x794 JUMP JUMPDEST PUSH0 JUMPDEST DUP3 DUP2 LT ISZERO PUSH2 0x9D7 JUMPI DUP5 DUP10 ADD MLOAD DUP3 SSTORE PUSH1 0x1 DUP3 ADD SWAP2 POP PUSH1 0x20 DUP6 ADD SWAP5 POP PUSH1 0x20 DUP2 ADD SWAP1 POP PUSH2 0x9B2 JUMP JUMPDEST DUP7 DUP4 LT ISZERO PUSH2 0x9F4 JUMPI DUP5 DUP10 ADD MLOAD PUSH2 0x9F0 PUSH1 0x1F DUP10 AND DUP3 PUSH2 0x903 JUMP JUMPDEST DUP4 SSTORE POP JUMPDEST PUSH1 0x1 PUSH1 0x2 DUP9 MUL ADD DUP9 SSTORE POP POP POP JUMPDEST POP POP POP POP POP POP JUMP INVALID LOG2 PUSH5 0x6970667358 0x22 SLT KECCAK256 0xE4 SWAP9 MUL LT SDIV 0xDF PUSH21 0x9EB4C7948F4464ECFE6E23D15C22F21632204357B0 SELFBALANCE REVERT PUSH15 0x6E64736F6C63430008160033000000 "
				},
				"gasEstimates": {
					"creation": {
						"codeDepositCost": "524600",
						"executionCost": "29824",
						"totalCost": "554424"
					},
					"external": {
						"addNewRecords(int256,string,string,int256)": "infinite",
						"bonusMarks(int256)": "infinite",
						"stdCount()": "2469",
						"stdRecords(int256)": "infinite"
					}
				},
				"methodIdentifiers": {
					"addNewRecords(int256,string,string,int256)": "9e676bcf",
					"bonusMarks(int256)": "bc542e72",
					"stdCount()": "fe615f2a",
					"stdRecords(int256)": "cd9f8398"
				}
			},
			"storageLayout": {
				"storage": [
					{
						"astId": 12,
						"contract": "contracts/user.sol:MarksManagmtSys",
						"label": "owner",
						"offset": 0,
						"slot": "0",
						"type": "t_address"
					},
					{
						"astId": 15,
						"contract": "contracts/user.sol:MarksManagmtSys",
						"label": "stdCount",
						"offset": 0,
						"slot": "1",
						"type": "t_int256"
					},
					{
						"astId": 20,
						"contract": "contracts/user.sol:MarksManagmtSys",
						"label": "stdRecords",
						"offset": 0,
						"slot": "2",
						"type": "t_mapping(t_int256,t_struct(Student)10_storage)"
					}
				],
				"types": {
					"t_address": {
						"encoding": "inplace",
						"label": "address",
						"numberOfBytes": "20"
					},
					"t_int256": {
						"encoding": "inplace",
						"label": "int256",
						"numberOfBytes": "32"
					},
					"t_mapping(t_int256,t_struct(Student)10_storage)": {
						"encoding": "mapping",
						"key": "t_int256",
						"label": "mapping(int256 => struct MarksManagmtSys.Student)",
						"numberOfBytes": "32",
						"value": "t_struct(Student)10_storage"
					},
					"t_string_storage": {
						"encoding": "bytes",
						"label": "string",
						"numberOfBytes": "32"
					},
					"t_struct(Student)10_storage": {
						"encoding": "inplace",
						"label": "struct MarksManagmtSys.Student",
						"members": [
							{
								"astId": 3,
								"contract": "contracts/user.sol:MarksManagmtSys",
								"label": "ID",
								"offset": 0,
								"slot": "0",
								"type": "t_int256"
							},
							{
								"astId": 5,
								"contract": "contracts/user.sol:MarksManagmtSys",
								"label": "fName",
								"offset": 0,
								"slot": "1",
								"type": "t_string_storage"
							},
							{
								"astId": 7,
								"contract": "contracts/user.sol:MarksManagmtSys",
								"label": "lName",
								"offset": 0,
								"slot": "2",
								"type": "t_string_storage"
							},
							{
								"astId": 9,
								"contract": "contracts/user.sol:MarksManagmtSys",
								"label": "marks",
								"offset": 0,
								"slot": "3",
								"type": "t_int256"
							}
						],
						"numberOfBytes": "128"
					}
				}
			},
			"userdoc": {
				"kind": "user",
				"methods": {},
				"version": 1
			}
		}
	}
}